:100000000C945E010C94BF060C9494060C94690643
:100010000C943E060C9413060C94E8050C94BD0554
:100020000C9492050C948F010C948F010C948F0109
:100030000C948F010C948F010C948F010C948F0100
:100040000C948F010C948F010C948F010C948F01F0
:100050000C948F010C948F010C948F010C94480523
:100060000C948F010C9414070C94EA060C948F01E5
:100070000C948F010C948F010C948F010C948F01C0
:100080000C948F010C948F010C948F010C948F01B0
:100090000C948F010C948F010C948F010C948F01A0
:1000A0000C948F010C948F010C948F010C948F0190
:1000B0000C948F010C948F010C948F010C948F0180
:1000C0000C948F010C948F010C948F010C948F0170
:1000D0000C948F010C948F010C948F010C948F0160
:1000E0000C948F0105A84CCDB2D44EB93836A90274
:1000F0000C50B9918688083CA6AAAA2ABE00000026
:10010000803F0C949D040C940A020C9431030C94CF
:10011000C4010C94BC010C944B020C942F020C945F
:100120004F020C94E4010C9407040C946B040C949F
:1001300018020C9425020C9410020C9423030C94C6
:100140004A020C9469030C940F030C9433020C9430
:1001500014020C9437020C94D2020C94B4010C9447
:10016000AB0C0C94CC010C94B6030C9441020C948F
:1001700029020C941F020C9400030C94D4010C94DB
:100180003D020C9439040C9445020C94DC010C944F
:10019000AC010C94D3020C941C020000210024003A
:1001A00027002A002D003000330001010000040167
:1001B00007010A01000020002300260029002C006E
:1001C0002F003200000100000301060109010000B8
:1001D0002200250028002B002E00310034000201EF
:1001E0000000050108010B010505050507050808C4
:1001F0000808020202020A0A0808040404040101B1
:1002000001010101010103030303030303030407C5
:1002100007070C0C0C0C0C0C0C0C0202020206065C
:100220000606060606060B0B0B0B0B0B0B0B01024F
:1002300010202008081020401020408002010201F8
:1002400008040201010204081020408080402010B0
:100250000804020180040201804020100804020109
:100260000804020101020408102040800102040871
:100270001020408000000A0B02090C0D0E08070335
:100280000401000000000000000000000000000069
:10029000000000000000000000000000000000005E
:1002A000121110000000000000000000000000001B
:1002B00000000000000000000000AB0C11241FBE75
:1002C000CFEFD1E2DEBFCDBF00E00CBF12E0A0E077
:1002D000B2E0E6E8FFE100E00BBF02C007900D923C
:1002E000AE32B107D9F723E0AEE2B2E001C01D9211
:1002F000A437B207E1F711E0CEE5D1E000E006C097
:1003000021970109802FFE010E94FA0CCD35D107FB
:1003100080E00807A9F70E944A070C94C10F0C94CB
:100320000000E82FF0E0DF01AA0FBB1FA85FBD4F60
:1003300011967C936E93883008F04DC08827EC5559
:10034000FE4F8F4F0C94FA0CCC01D401AC01B401D8
:10035000BC01C401DC01E401809169008C7F8160F3
:1003600080936900E89A089580916900837F846092
:1003700080936900E99A0895809169008F7C80617B
:1003800080936900EA9A0895809169008F73806470
:1003900080936900EB9A089580916A008C7F816058
:1003A00080936A00EC9A089580916A00837F84604C
:1003B00080936A00ED9A089580916A008F7C806135
:1003C00080936A00EE9A089580916A008F7380642A
:1003D00080936A00EF9A08958150823108F05AC0E4
:1003E000E82FF0E08827E850FE4F8F4F0C94FA0C6E
:1003F00018021C020A02100214024A021F022502FD
:1004000029022F02330237023D0241024A0245020D
:100410004B024F02809180008F7780938000089577
:10042000809180008F7DF9CF80918000877FF5CF0C
:1004300084B58F7784BD089584B58F7DFBCF80917F
:10044000B0008F778093B00008958091B0008F7DC9
:10045000F9CF809190008F778093900008958091DC
:1004600090008F7DF9CF80919000877FF5CF8091AC
:10047000A0008F778093A00008958091A0008F7DC9
:10048000F9CF8091A000877FF5CF809120018F77F1
:10049000809320010895809120018F7DF9CF809174
:1004A0002001877FF5CFCF93DF93282F30E0F9012C
:1004B000EC58FD4F8491F901E25DFD4FD491F901B3
:1004C000E851FE4FC491CC23A1F081110E94EC01B0
:1004D000EC2FF0E0EE0FFF1FEC54FE4FA591B4910E
:1004E000EC91ED2381E090E009F480E0DF91CF9181
:1004F000089580E090E0FACFCF93DF9390E0FC0185
:10050000E25DFD4F249188519E4FFC018491882328
:10051000D1F090E0880F991FFC01E656FE4FA5919F
:10052000B491FC01E253FE4FC591D491623071F455
:100530009FB7F8943C91822F809583238C93E88118
:100540002E2B28839FBFDF91CF9108958FB7F8940A
:10055000EC912E2B2C938FBFF6CF3FB7F894809160
:10056000D3029091D402A091D502B091D60226B5C3
:10057000A89B05C02F3F19F00196A11DB11D3FBFDB
:10058000BA2FA92F982F8827BC01CD01620F711DAA
:10059000811D911D42E0660F771F881F991F4A95A4
:1005A000D1F708950895AF92BF92CF92DF92EF9264
:1005B000FF920F931F93CF93DF936C017B018B010D
:1005C000040F151FEB015E01AE18BF08C017D1075D
:1005D00059F06991D601ED91FC910190F081E02DE7
:1005E000C6011995892B79F7C501DF91CF911F912C
:1005F0000F91FF90EF90DF90CF90BF90AF90089554
:10060000FC01538D448D252F30E0842F90E0821B18
:10061000930B541710F0CF96089501970895FC019D
:10062000918D828D981761F0A28DAE0FBF2FB11DF5
:100630005D968C91928D9F5F9F73928F90E008954D
:100640008FEF9FEF0895FC01918D828D981731F007
:10065000828DE80FF11D858D90E008958FEF9FEF5B
:100660000895FC01918D228D892F90E0805C9F4F31
:10067000821B91098F739927089587ED92E00E945C
:10068000310321E0892B09F420E0822F0895FC0139
:10069000A48DA80FB92FB11DA35ABF4F2C91848DE3
:1006A00090E001968F739927848FA689B7892C9340
:1006B000A089B1898C91837080648C93938D848D93
:1006C000981306C00288F389E02D80818F7D808396
:1006D0000895EF92FF920F931F93CF93DF93EC0156
:1006E00081E0888F9B8D8C8D98131AC0E889F989D9
:1006F000808185FF15C09FB7F894EE89FF896083DC
:10070000E889F98980818370806480839FBF81E05C
:1007100090E0DF91CF911F910F91FF90EF9008959E
:10072000F62E0B8D10E00F5F1F4F0F731127E02E79
:100730008C8D8E110CC00FB607FCFACFE889F989B1
:10074000808185FFF5CFCE010E944703F1CFEB8D6D
:10075000EC0FFD2FF11DE35AFF4FF0829FB7F89485
:100760000B8FEA89FB8980818062CFCFCF93DF93A3
:10077000EC01888D8823B9F0AA89BB89E889F989B9
:100780008C9185FD03C0808186FD0DC00FB607FCEE
:10079000F7CF8C9185FFF2CF808185FFEDCFCE0121
:1007A0000E944703E9CFDF91CF91089580E090E068
:1007B000892B29F00E943D0381110E94000080E0F6
:1007C00090E0892B49F080E090E0892B29F00E948D
:1007D000000081110E94000080E090E0892B49F028
:1007E00080E090E0892B29F00E94000081110E9496
:1007F000000080E090E0892B49F080E090E0892BB8
:1008000029F00E94000081110C940000089580914D
:1008100004020E945302209106020197C9F4822F1C
:100820000E9453020197C9F48091C6029091C702B9
:10083000A091C802B091C9020197A109B1098093A2
:10084000C6029093C702A093C802B093C90208954C
:10085000822F0E945302892B39F38091C602909116
:10086000C702A091C802B091C9020196A11DB11D95
:10087000E6CF809106020E94530220910402019764
:10088000C9F4822F0E945302892BC9F48091C602B9
:100890009091C702A091C802B091C9020197A10925
:1008A000B1098093C6029093C702A093C802B09387
:1008B000C9020895822F0E945302019739F3809153
:1008C000C6029091C702A091C802B091C9020196D8
:1008D000A11DB11DE6CF809100020E94530220911C
:1008E00002020197C9F4822F0E9453020197C9F4B2
:1008F0008091CA029091CB02A091CC02B091CD021E
:100900000196A11DB11D8093CA029093CB02A093C2
:10091000CC02B093CD020895822F0E945302892BFE
:1009200039F38091CA029091CB02A091CC02B09190
:10093000CD020197A109B109E6CF809102020E9480
:100940005302209100020197C9F4822F0E945302A2
:10095000892BC9F48091CA029091CB02A091CC025C
:10096000B091CD020196A11DB11D8093CA02909352
:10097000CB02A093CC02B093CD020895822F0E94A7
:100980005302019739F38091CA029091CB02A09152
:10099000CC02B091CD020197A109B109E6CFCF9366
:1009A000DF93C82F61E00E947C022C2F30E0F90118
:1009B000EC58FD4F8491F901E25DFD4FD491F901AE
:1009C000E851FE4FC491CC2391F081110E94EC01BB
:1009D000EC2FF0E0EE0FFF1FE253FE4FA591B49114
:1009E0008FB7F894EC91D095DE23DC938FBFDF9125
:1009F000CF9108958F929F92AF92BF920F931F93C2
:100A0000CF93DF93CDB7DEB7A1970FB6F894DEBFD3
:100A10000FBECDBF19A2423008F44AE08E010F5D2F
:100A20001F4F842E912CB12CA12CA50194010E9462
:100A3000D80CE62FB901CA01EA3044F5E05DD801CF
:100A4000EE938D01232B242B252B79F790E080E06A
:100A5000109769F0FD0101900020E9F73197AF018F
:100A60004A1B5B0BBD0187ED92E00E94D302A19669
:100A70000FB6F894DEBF0FBECDBFDF91CF911F91AF
:100A80000F91BF90AF909F908F900895E95CD7CF62
:100A90001F920F920FB60F9211242F933F938F93B3
:100AA0009F93AF93BF938091CF029091D002A0917A
:100AB000D102B091D2023091CE0223E0230F2D3724
:100AC00058F50196A11DB11D2093CE028093CF024F
:100AD0009093D002A093D102B093D2028091D3021E
:100AE0009091D402A091D502B091D6020196A11D99
:100AF000B11D8093D3029093D402A093D502B093FA
:100B0000D602BF91AF919F918F913F912F910F90FE
:100B10000FBE0F901F90189526E8230F0296A11D77
:100B2000B11DD2CF1F920F920FB60F9211240BB6A8
:100B30000F922F933F934F935F936F937F938F9376
:100B40009F93AF93BF93EF93FF93E0911602F091C1
:100B500017021995FF91EF91BF91AF919F918F91DE
:100B60007F916F915F914F913F912F910F900BBEAD
:100B70000F900FBE0F901F9018951F920F920FB6F7
:100B80000F9211240BB60F922F933F934F935F93C5
:100B90006F937F938F939F93AF93BF93EF93FF9345
:100BA000E0911402F09115021995FF91EF91BF9118
:100BB000AF919F918F917F916F915F914F913F91F5
:100BC0002F910F900BBE0F900FBE0F901F90189596
:100BD0001F920F920FB60F9211240BB60F922F9304
:100BE0003F934F935F936F937F938F939F93AF93B5
:100BF000BF93EF93FF93E0910A02F0910B021995D6
:100C0000FF91EF91BF91AF919F918F917F916F91E4
:100C10005F914F913F912F910F900BBE0F900FBEA0
:100C20000F901F9018951F920F920FB60F921124DC
:100C30000BB60F922F933F934F935F936F937F93D6
:100C40008F939F93AF93BF93EF93FF93E09108022D
:100C5000F09109021995FF91EF91BF91AF919F918A
:100C60008F917F916F915F914F913F912F910F9055
:100C70000BBE0F900FBE0F901F9018951F920F92F2
:100C80000FB60F9211240BB60F922F933F934F93F1
:100C90005F936F937F938F939F93AF93BF93EF93E4
:100CA000FF93E0911202F09113021995FF91EF91D9
:100CB000BF91AF919F918F917F916F915F914F9174
:100CC0003F912F910F900BBE0F900FBE0F901F9072
:100CD00018951F920F920FB60F9211240BB60F9218
:100CE0002F933F934F935F936F937F938F939F9334
:100CF000AF93BF93EF93FF93E0911002F091110235
:100D00001995FF91EF91BF91AF919F918F917F9135
:100D10006F915F914F913F912F910F900BBE0F906C
:100D20000FBE0F901F9018951F920F920FB60F9243
:100D300011240BB60F922F933F934F935F936F93B2
:100D40007F938F939F93AF93BF93EF93FF93E09124
:100D50000E02F0910F021995FF91EF91BF91AF91A3
:100D60009F918F917F916F915F914F913F912F91C3
:100D70000F900BBE0F900FBE0F901F9018951F92F3
:100D80000F920FB60F9211240BB60F922F933F9331
:100D90004F935F936F937F938F939F93AF93BF9383
:100DA000EF93FF93E0910C02F0910D021995FF91E2
:100DB000EF91BF91AF919F918F917F916F915F91D3
:100DC0004F913F912F910F900BBE0F900FBE0F9040
:100DD0001F9018951F920F920FB60F9211240BB609
:100DE0000F922F933F934F935F936F937F938F93C4
:100DF0009F93AF93BF93EF93FF9387ED92E00E9491
:100E00004703FF91EF91BF91AF919F918F917F9198
:100E10006F915F914F913F912F910F900BBE0F906B
:100E20000FBE0F901F9018951F920F920FB60F9242
:100E300011240BB60F922F938F939F93EF93FF93F1
:100E4000E091E702F091E8028081E091ED02F091FB
:100E5000EE0282FD1DC090818091F0028F5F8F7342
:100E60002091F102821741F0E091F002F0E0E952A6
:100E7000FD4F958F8093F002FF91EF919F918F919D
:100E80002F910F900BBE0F900FBE0F901F901895D3
:100E90008081F2CF789484B5826084BD84B581600E
:100EA00084BD85B5826085BD85B5816085BD809135
:100EB0006E00816080936E001092810080918100AD
:100EC00082608093810080918100816080938100A5
:100ED000809180008160809380008091B100846067
:100EE0008093B1008091B00081608093B0008091C8
:100EF0009100826080939100809191008160809345
:100F00009100809190008160809390008091A10079
:100F100082608093A1008091A10081608093A100F4
:100F20008091A00081608093A00080912101826067
:100F30008093210180912101816080932101809122
:100F4000200181608093200180917A0084608093E9
:100F50007A0080917A00826080937A0080917A0092
:100F6000816080937A0080917A00806880937A0013
:100F70001092C100E091E702F091E80282E08083E4
:100F8000E091E302F091E4021082E091E502F09139
:100F9000E6028FEC80831092EF02E091EB02F09179
:100FA000EC0286E08083E091E902F091EA02808120
:100FB00080618083E091E902F091EA02808188609B
:100FC0008083E091E902F091EA0280818068808369
:100FD000E091E902F091EA0280818F7D808380E0D8
:100FE00090E0A0E2B2E48093BE029093BF02A0938F
:100FF000C002B093C1028093A6029093A702A0936F
:10100000A802B093A90280E090E0A0E7B3E4809347
:101010007E0290937F02A0938002B093810280E0D1
:1010200090E0A0E8BFE380934A0290934B02A09324
:101030004C02B0934D0286E090E090934902809379
:10104000480285E090E0909347028093460287E053
:1010500090E0909345028093440288E090E0909362
:1010600043028093420286E00E94CF0485E00E9402
:10107000CF0487E00E94CF0488E00E94CF0484E17F
:1010800090E0909307028093060285E190E09093B0
:1010900005028093040240E951E05093C30240935B
:1010A000C20224E030E03093C5022093C40281E004
:1010B00090E090935302809352021092CA021092D1
:1010C000CB021092CC021092CD0210924E021092DE
:1010D0004F02109250021092510262E170E0709340
:1010E00003026093020263E170E070930102609377
:1010F00000025093AB024093AA023093AD022093BA
:10110000AC0290936902809368021092C60210921A
:10111000C7021092C8021092C90210926402109283
:101120006502109266021092670262E084E10E94FA
:101130007C0262E085E10E947C0262E082E10E9422
:101140007C0262E083E10E947C026DE974E085E04C
:101150000E9491016BE674E084E00E94910169E3D2
:1011600074E083E00E94910167E074E082E00E94F5
:10117000910170915C0260915D0250915E0240911C
:101180005F02309160022091610290916202809131
:101190006302709354026093550250935602409339
:1011A0005702309358022093590290935A02809329
:1011B0005B022091CA023091CB024091CC02509147
:1011C000CD02A0915202B09153020E94020D8B01F8
:1011D0009C01330F000B102F980160935C027093F9
:1011E0005D0280935E0290935F0200936002009321
:1011F0006102009362020093630280915C0290910D
:101200005D02A0915E02B0915F02C0916002D09138
:101210006102E0916202F091630200915402109128
:101220005502209156023091570240915802509138
:10123000590260915A0270915B02801B910BA20BC4
:10124000B30B8093BA029093BB02A093BC02B093FD
:10125000BD0280914E0290914F02A0915002B09138
:1012600051024091BA025091BB026091BC02709150
:10127000BD02840F951FA61FB71F80934E02909347
:101280004F02A0935002B093510280916C02909152
:101290006D0290936B0280936A024091C602509156
:1012A000C7026091C8027091C90220916802309112
:1012B0006902249FC001259F900D349F900D112439
:1012C00090936D0280936C0280916C0290916D02FC
:1012D00020916A0230916B02821B930BB0E0A0E078
:1012E0008093A2029093A302A093A402B093A502BC
:1012F0008091A2029091A302A091A402B091A502B4
:1013000081339547A105B105A4F08091A202909187
:10131000A302A091A402B091A5028F5F9F4FA109E3
:10132000B1098093A2029093A302A093A402B09368
:10133000A5028091A2029091A302A091A402B09173
:10134000A502803D9A48AF4FBF4F9CF48091A20206
:101350009091A302A091A402B091A5020197AF4F72
:10136000BF4F8093A2029093A302A093A402B093D4
:10137000A5028091640290916502A0916602B091ED
:1013800067024091A2025091A3026091A402709161
:10139000A502840F951FA61FB71F80936402909328
:1013A0006502A0936602B0936702C090BE02D0901F
:1013B000BF02E090C002F090C1028091BA02909109
:1013C000BB02A091BC02B091BD02880F991FBC0165
:1013D000990F880B990B0E940F0E2BED3FE049E40B
:1013E00050E40E94030FA70196010E94030F6B01B6
:1013F0007C012091C4023091C5028091C20290917B
:10140000C302289FB001299F700D389F700D1124D1
:10141000072E000C880B990B0E940F0E9B01AC014C
:10142000C701B6010E949B0D6093B6027093B7028C
:101430008093B8029093B9026091B6027091B7029E
:101440008091B8029091B9022091B2023091B3021A
:101450004091B4025091B5020E94250D6093B202F2
:101460007093B3028093B4029093B5026091B60278
:101470007091B7028091B8029091B9022091AE02AA
:101480003091AF024091B0025091B1020E94250DFF
:101490006093AE027093AF028093B0029093B1025A
:1014A000C090A602D090A702E090A802F090A902F6
:1014B0008091A2029091A302A091A402B091A502F2
:1014C000880F991FBC01990F880B990B0E940F0E72
:1014D0002BED3FE049E450E40E94030FA701960181
:1014E0000E94030F6B017C012091AC023091AD0290
:1014F0008091AA029091AB02289FB001299F700DA4
:10150000389F700D1124072E000C880B990B0E9438
:101510000F0E9B01AC01C701B6010E949B0D6093A9
:101520009E0270939F028093A0029093A10260910B
:101530009E0270919F028091A0029091A102209141
:101540009A0230919B0240919C0250919D020E9410
:10155000250D60939A0270939B0280939C02909356
:101560009D0260919E0270919F028091A0029091D5
:10157000A1022091960230919702409198025091D9
:1015800099020E94250D60939602709397028093B2
:101590009802909399026091B6027091B70280917F
:1015A000B8029091B90220919E0230919F02409121
:1015B000A0025091A1020E94250D20E030E040E001
:1015C0005FE30E94030F60939202709393028093F3
:1015D000940290939502609192027091930280918F
:1015E00094029091950220918E0230918F02409149
:1015F0009002509191020E94250D60938E0270938B
:101600008F02809390029093910260918A02709170
:101610008B0280918C0290918D020E94960D2091F8
:101620009202309193024091940250919502C090A1
:101630008602D0908702E0908802F09089020E9492
:10164000030FA70196010E94250D609386027093F7
:101650008702809388029093890260918A02709138
:101660008B0280918C0290918D020E94700F2091CC
:101670009202309193024091940250919502C09051
:101680008202D0908302E0908402F09085020E9452
:10169000030FA70196010E94250D609382027093AB
:1016A000830280938402909385026091B6027091C8
:1016B000B7028091B8029091B90220919E023091B8
:1016C0009F024091A0025091A10280907E029090D2
:1016D0007F02A0908002B0908102C0908A02D090D8
:1016E0008B02E0908C02F0908D020E94240DA501E7
:1016F00094010E949B0DA70196010E94250D609305
:101700008A0270938B0280938C0290938D02609179
:10171000B6027091B7028091B8029091B9022091FF
:101720009E0230919F024091A0025091A1028090B0
:101730007E0290907F02A0908002B0908102C090C3
:101740007A02D0907B02E0907C02F0907D020E94B1
:10175000240DA50194010E949B0DA70196010E94F2
:10176000250D60937A0270937B0280937C029093A4
:101770007D0260918A0270918B0280918C0290911F
:101780008D022BED3FE049E450E40E94FE0E181656
:10179000BCF460918A0270918B0280918C029091CE
:1017A0008D022BED3FE049EC50E40E94240D609344
:1017B0008A0270938B0280938C0290938D02D9CF12
:1017C00060918A0270918B0280918C0290918D02BF
:1017D0002BED3FE049E450EC0E94910D87FF17C0CC
:1017E00060918A0270918B0280918C0290918D029F
:1017F0002BED3FE049EC50E40E94250D60938A02F6
:1018000070938B0280938C0290938D02D9CF60915C
:101810008A0270918B0280918C0290918D0220E05F
:1018200030E044EB53E40E94030F2BED3FE049EC22
:1018300050E40E949B0D6093760270937702809330
:101840007802909379028091720290917302A09134
:101850007402B09175020196A11DB11D80937202B0
:1018600090937302A0937402B093750280916E02FC
:1018700090916F02A0917002B09171020196A11D2A
:10188000B11D80936E0290936F02A0937002B0938B
:1018900071028091860290918702A0918802B09196
:1018A00089028091820290918302A0918402B0917A
:1018B0008502C090CA02D090CB02E090CC02F0909A
:1018C000CD024AE0C701B601F7FE0DC06DE287ED1B
:1018D00092E00E94690366277727CB016C197D0986
:1018E0008E099F094AE00E94FA04C090C602D09077
:1018F000C702E090C802F090C9024AE0C701B601F1
:10190000F7FE0DC06DE287ED92E00E946903662745
:101910007727CB016C197D098E099F094AE00E9447
:10192000FA0442E050E06AE272E087ED92E00E9441
:10193000D3020E94AD026B017C010E94AD026C19C2
:101940007D098E099F09683E734081059105A8F3C2
:101950000E94D6030ECCE7EDF2E01382128288EEED
:1019600093E0A0E0B0E084839583A683B7838CE105
:1019700092E09183808385EC90E09587848784EC66
:1019800090E09787868780EC90E0918B808B81EC4C
:1019900090E0938B828B82EC90E0958B848B86EC2D
:1019A00090E0978B868B118E128E138E148E089575
:1019B000A1E21A2EAA1BBB1BFD010DC0AA1FBB1F53
:1019C000EE1FFF1FA217B307E407F50720F0A21BC5
:1019D000B30BE40BF50B661F771F881F991F1A9432
:1019E00069F760957095809590959B01AC01BD015C
:1019F000CF010895EE0FFF1F881F8BBF0790F69150
:101A0000E02D1994B7FF0C940A0D0E940A0D821B59
:101A1000930B08950E94150DA59F900DB49F900DF6
:101A2000A49F800D911D11240895A29FB001B39F22
:101A3000C001A39F700D811D1124911DB29F700DD7
:101A4000811D1124911D08955058BB27AA270E947B
:101A50003C0D0C94B00E0E94770E38F00E947E0E62
:101A600020F039F49F3F19F426F40C94740E0EF410
:101A7000E095E7FB0C946E0EE92F0E94D50E58F30B
:101A8000BA17620773078407950720F079F4A6F563
:101A90000C94F70E0EF4E0950B2EBA2FA02D0B012F
:101AA000B90190010C01CA01A0011124FF27591BA3
:101AB00099F0593F50F4503E68F11A16F040A22FA9
:101AC000232F342F4427585FF3CF4695379527951A
:101AD000A795F0405395C9F77EF41F16BA0B620B19
:101AE000730B840BBAF09150A1F0FF0FBB1F661F60
:101AF000771F881FC2F70EC0BA0F621F731F841FA3
:101B000048F4879577956795B795F7959E3F08F0C8
:101B1000B0CF9395880F08F09927EE0F979587958A
:101B200008950E944A0E08F481E008950E94870EED
:101B3000E3950C94C10E0E94AF0D0C94B00E0E9460
:101B40007E0E58F00E94770E40F029F45F3F29F096
:101B50000C946E0E51110C94F80E0C94740E0E949D
:101B6000D50E68F39923B1F3552391F3951B550BCB
:101B7000BB27AA2762177307840738F09F5F5F4F60
:101B8000220F331F441FAA1FA9F335D00E2E3AF09F
:101B9000E0E832D091505040E695001CCAF72BD0B7
:101BA000FE2F29D0660F771F881FBB1F2617370708
:101BB0004807AB07B0E809F0BB0B802DBF01FF273A
:101BC00093585F4F3AF09E3F510578F00C946E0E9B
:101BD0000C94F80E5F3FE4F3983ED4F38695779526
:101BE0006795B795F7959F5FC9F7880F911D9695F3
:101BF000879597F90895E1E0660F771F881FBB1F4F
:101C0000621773078407BA0720F0621B730B840BFB
:101C1000BA0BEE1F88F7E0950895E89409C097FB8A
:101C20003EF490958095709561957F4F8F4F9F4FB3
:101C30009923A9F0F92F96E9BB279395F6958795F7
:101C400077956795B795F111F8CFFAF4BB0F11F4BA
:101C500060FF1BC06F5F7F4F8F4F9F4F16C0882361
:101C600011F096E911C0772321F09EE8872F762F97
:101C700005C0662371F096E8862F70E060E02AF0D8
:101C80009A95660F771F881FDAF7880F96958795C4
:101C900097F90895990F0008550FAA0BE0E8FEEF99
:101CA00016161706E807F907C0F012161306E40720
:101CB000F50798F0621B730B840B950B39F40A2619
:101CC00061F0232B242B252B21F408950A2609F4F7
:101CD000A140A6958FEF811D811D089597F99F67FB
:101CE00080E870E060E008959FEF80EC08950024A4
:101CF0000A941616170618060906089500240A9471
:101D0000121613061406050608950C94740E0E940C
:101D1000DD0ED8F3E894E0E0BB279F57F0F02AED02
:101D20003FE049EC06C0EE0FBB0F661F771F881F10
:101D300028F0B23A62077307840728F0B25A620BA0
:101D4000730B840BE3959A9572F7803830F49A956B
:101D5000BB0F661F771F881FD2F790480C947A0F2D
:101D6000092E0394000C11F4882352F0BB0F40F4A9
:101D7000BF2B11F460FF04C06F5F7F4F8F4F9F4FE9
:101D80000895EF93E0FF07C0A2EA2AED3FE049EC97
:101D90005FEB0E943C0D0E94B00E0F90039401FC7B
:101DA0009058E4EEF0E00C94860F57FD9058440FE5
:101DB000551F59F05F3F71F04795880F97FB991FAA
:101DC00061F09F3F79F08795089512161306140667
:101DD000551FF2CF4695F1DF08C0161617061806F4
:101DE000991FF1CF86957105610508940895E894CF
:101DF000BB2766277727CB0197F908950E944A0EE3
:101E000008F48FEF08950E94160F0C94B00E0E94F4
:101E1000770E38F00E947E0E20F0952311F00C947E
:101E20006E0E0C94740E11240C94F80E0E94D50EB4
:101E300070F3959FC1F3950F50E0551F629FF0011D
:101E4000729FBB27F00DB11D639FAA27F00DB11D36
:101E5000AA1F649F6627B00DA11D661F829F2227BF
:101E6000B00DA11D621F739FB00DA11D621F839F46
:101E7000A00D611D221F749F3327A00D611D231F1C
:101E8000849F600D211D822F762F6A2F11249F576A
:101E900050409AF0F1F088234AF0EE0FFF1FBB1F6D
:101EA000661F771F881F91505040A9F79E3F51052C
:101EB00080F00C946E0E0C94F80E5F3FE4F3983EA5
:101EC000D4F3869577956795B795F795E7959F5FD6
:101ED000C1F7FE2B880F911D9695879597F9089568
:101EE0009F930E94870E0F9007FCEE5F0C94C10E2B
:101EF0009F3F31F0915020F4879577956795B7957E
:101F0000880F911D9695879597F908959F938F93C4
:101F10007F936F93FF93EF939B01AC010E94030F9C
:101F2000EF91FF910E949A0F2F913F914F915F91F6
:101F30000C94030FDF93CF931F930F93FF92EF92B5
:101F4000DF927B018C01689406C0DA2EEF010E94BB
:101F5000160FFE01E894A591259135914591559173
:101F6000A6F3EF010E943C0DFE019701A801DA944F
:101F700069F7DF90EF90FF900F911F91CF91DF9164
:061F80000895F894FFCF64
:101F86001300120015001400D202D202D202D202AD
:101F9600D202D202D202D202000000006903D302AA
:0E1FA6000003B60331030F0323030D0A0000EE
:00000001FF
