:100000000C943F010C943C060C9411060C94E605EC
:100010000C94BB050C9490050C9465050C943A0562
:100020000C940F050C9470010C9470010C947001E9
:100030000C9470010C9470010C9470010C9470017C
:100040000C9470010C9470010C9470010C9470016C
:100050000C9470010C9470010C9470010C94C50404
:100060000C9470010C9491060C9467060C9470012A
:100070000C9470010C9470010C9470010C9470013C
:100080000C9470010C9470010C9470010C9470012C
:100090000C9470010C9470010C9470010C9470011C
:1000A0000C9470010C9470010C9470010C9470010C
:1000B0000C9470010C9470010C9470010C947001FC
:1000C0000C9470010C9470010C9470010C947001EC
:1000D0000C9470010C9470010C9470010C947001DC
:1000E0000C9470010C9496010C94AF010C948D0348
:1000F0000C94BC030C94A2010C9495020C949001F6
:100100000C94A5010C94AB010C94D1010C94B70292
:100110000C94A9020C94BD010C949A010C94580201
:100120000C94C7010C9487080C94D5010C94EF0231
:100130000C94B5010C94CB010C9486020C94C30171
:100140000C941A040C94EB030C94D0010C94B90198
:100150000C949E010C943C030C9459020000210065
:10016000240027002A002D00300033000101000088
:10017000040107010A0100002000230026002900D5
:100180002C002F00320000010000030106010901CC
:1001900000002200250028002B002E003100340032
:1001A00002010000050108010B0105050505070511
:1001B00008080808020202020A0A080804040404E3
:1001C000010101010101010103030303030303030F
:1001D000040707070C0C0C0C0C0C0C0C020202029E
:1001E00006060606060606060B0B0B0B0B0B0B0B87
:1001F0000102102020080810204010204080020139
:10020000020108040201010204081020408080401D
:10021000201008040201800402018040201008041C
:1002200002010804020101020408102040800102BA
:1002300004081020408000000A0B02090C0D0E0873
:10024000070304010000000000000000000000009F
:10025000000000000000000000000000000000009E
:10026000000012111000000000000000000000005B
:1002700000000000000000000000000087081124BA
:100280001FBECFEFD1E2DEBFCDBF00E00CBF12E05A
:10029000A0E0B2E0E0ECF1E100E00BBF02C00790AB
:1002A0000D92AE32B107D9F723E0AEE2B2E001C061
:1002B0001D92A036B207E1F711E0CFE3D1E000E0F4
:1002C00006C021970109802FFE010E94D608CE3377
:1002D000D10780E00807A9F70E94C7060C94DE0842
:1002E0000C9400008150823108F05AC0E82FF0E0F1
:1002F0008827E258FE4F8F4F0C94D6089E01A2012A
:10030000900196019A01D001A501AB01AF01B501A1
:10031000B901BD01C301C701D001CB01D101D50194
:10032000809180008F778093800008958091800075
:100330008F7DF9CF80918000877FF5CF84B58F774F
:1003400084BD089584B58F7DFBCF8091B0008F77F9
:100350008093B00008958091B0008F7DF9CF809197
:1003600090008F77809390000895809190008F7D0A
:10037000F9CF80919000877FF5CF8091A0008F7793
:100380008093A00008958091A0008F7DF9CF809187
:10039000A000877FF5CF809120018F778093200187
:1003A0000895809120018F7DF9CF80912001877F72
:1003B000F5CFCF93DF93282F30E0F901EA5CFD4FB2
:1003C0008491F901E051FE4FD491F901E655FE4FB9
:1003D000C491CC23A1F081110E947201EC2FF0E0B6
:1003E000EE0FFF1FEA58FE4FA591B491EC91ED235B
:1003F00081E090E009F480E0DF91CF91089580E002
:1004000090E0FACFCF93DF9390E0FC01E051FE4FF4
:10041000249186559E4FFC0184918823D1F090E071
:10042000880F991FFC01E45AFE4FA591B491FC017D
:10043000E057FE4FC591D491623071F49FB7F894A4
:100440003C91822F809583238C93E8812E2B2883E7
:100450009FBFDF91CF9108958FB7F894EC912E2B29
:100460002C938FBFF6CF3FB7F8948091BF02909145
:10047000C002A091C102B091C20226B5A89B05C0DE
:100480002F3F19F00196A11DB11D3FBFBA2FA92F13
:10049000982F8827BC01CD01620F711D811D911D10
:1004A00042E0660F771F881F991F4A95D1F708957C
:1004B0000895AF92BF92CF92DF92EF92FF920F9387
:1004C0001F93CF93DF936C017B018B01040F151FEA
:1004D000EB015E01AE18BF08C017D10759F0699152
:1004E000D601ED91FC910190F081E02DC6011995A6
:1004F000892B79F7C501DF91CF911F910F91FF9063
:10050000EF90DF90CF90BF90AF900895FC01538D96
:10051000448D252F30E0842F90E0821B930B5417DD
:1005200010F0CF96089501970895FC01918D828D6A
:10053000981761F0A28DAE0FBF2FB11D5D968C9103
:10054000928D9F5F9F73928F90E008958FEF9FEF42
:100550000895FC01918D828D981731F0828DE80FFE
:10056000F11D858D90E008958FEF9FEF0895FC01B8
:10057000918D228D892F90E0805C9F4F821B910985
:100580008F739927089583EC92E00E94B70221E0CF
:10059000892B09F420E0822F0895FC01A48DA80F77
:1005A000B92FB11DA35ABF4F2C91848D90E00196B5
:1005B0008F739927848FA689B7892C93A089B189D5
:1005C0008C91837080648C93938D848D981306C076
:1005D0000288F389E02D80818F7D80830895EF92DA
:1005E000FF920F931F93CF93DF93EC0181E0888FED
:1005F0009B8D8C8D98131AC0E889F989808185FFBD
:1006000015C09FB7F894EE89FF896083E889F9895E
:1006100080818370806480839FBF81E090E0DF9160
:10062000CF911F910F91FF90EF900895F62E0B8DB3
:1006300010E00F5F1F4F0F731127E02E8C8D8E116E
:100640000CC00FB607FCFACFE889F989808185FFD5
:10065000F5CFCE010E94CD02F1CFEB8DEC0FFD2F37
:10066000F11DE35AFF4FF0829FB7F8940B8FEA8990
:10067000FB8980818062CFCFCF93DF93EC01888D9F
:100680008823B9F0AA89BB89E889F9898C9185FD0D
:1006900003C0808186FD0DC00FB607FCF7CF8C919B
:1006A00085FFF2CF808185FFEDCFCE010E94CD0284
:1006B000E9CFDF91CF91089580E090E0892B29F078
:1006C0000E94C30281110E94000080E090E0892B0B
:1006D00049F080E090E0892B29F00E940000811110
:1006E0000E94000080E090E0892B49F080E090E0DB
:1006F000892B29F00E94000081110E94000080E0F7
:1007000090E0892B49F080E090E0892B29F00E944D
:10071000000081110C940000089585E10E94D90128
:100720000197C9F484E10E94D9010197C9F480912D
:10073000B2029091B302A091B402B091B5020197B8
:10074000A109B1098093B2029093B302A093B402BD
:10075000B093B502089584E10E94D901892B39F341
:100760008091B2029091B302A091B402B091B5020F
:100770000196A11DB11DE6CF84E10E94D901019728
:10078000C9F485E10E94D901892BC9F48091B20294
:100790009091B302A091B402B091B5020197A10962
:1007A000B1098093B2029093B302A093B402B093C4
:1007B000B502089585E10E94D901019739F380912E
:1007C000B2029091B302A091B402B091B502019629
:1007D000A11DB11DE6CF83E10E94D9010197C9F4A3
:1007E00082E10E94D9010197C9F48091B6029091EB
:1007F000B702A091B802B091B9020196A11DB11D36
:100800008093B6029093B702A093B802B093B90256
:10081000089582E10E94D901892B39F38091B602B3
:100820009091B702A091B802B091B9020197A109C5
:10083000B109E6CF82E10E94D9010197C9F483E1B1
:100840000E94D901892BC9F48091B6029091B70218
:10085000A091B802B091B9020196A11DB11D80937B
:10086000B6029093B702A093B802B093B90208956C
:1008700083E10E94D901019739F38091B6029091EA
:10088000B702A091B802B091B9020197A109B109CC
:10089000E6CFCF93DF93C82F61E00E9402022C2F96
:1008A00030E0F901EA5CFD4F8491F901E051FE4F1F
:1008B000D491F901E655FE4FC491CC2391F08111FA
:1008C0000E947201EC2FF0E0EE0FFF1FE057FE4F89
:1008D000A591B4918FB7F894EC91D095DE23DC9379
:1008E0008FBFDF91CF910895FC0101900020E9F7BF
:1008F0003197AF01481B590BBC0183EC92E00C947B
:1009000059028F929F92AF92BF920F931F93CF93F2
:10091000DF93CDB7DEB7A1970FB6F894DEBF0FBE59
:10092000CDBF19A2423008F44AE08E010F5D1F4F7F
:10093000842E912CB12CA12CA50194010E94B40805
:10094000E62FB901CA01EA30F4F4E05DD801EE9374
:100950008D01232B242B252B79F790E080E0109735
:1009600019F0CD010E947404A1960FB6F894DEBF71
:100970000FBECDBFDF91CF911F910F91BF90AF9070
:100980009F908F900895E95CE1CF1F920F920FB670
:100990000F9211242F933F938F939F93AF93BF9305
:1009A0008091BB029091BC02A091BD02B091BE02A9
:1009B0003091BA0223E0230F2D3758F50196A11D7F
:1009C000B11D2093BA028093BB029093BC02A09306
:1009D000BD02B093BE028091BF029091C002A0916F
:1009E000C102B091C2020196A11DB11D8093BF0248
:1009F0009093C002A093C102B093C202BF91AF9185
:100A00009F918F913F912F910F900FBE0F901F904C
:100A1000189526E8230F0296A11DB11DD2CF1F9273
:100A20000F920FB60F9211240BB60F922F933F9394
:100A30004F935F936F937F938F939F93AF93BF93E6
:100A4000EF93FF93E0910E02F0910F021995FF9141
:100A5000EF91BF91AF919F918F917F916F915F9136
:100A60004F913F912F910F900BBE0F900FBE0F90A3
:100A70001F9018951F920F920FB60F9211240BB66C
:100A80000F922F933F934F935F936F937F938F9327
:100A90009F93AF93BF93EF93FF93E0910C02F0917C
:100AA0000D021995FF91EF91BF91AF919F918F9199
:100AB0007F916F915F914F913F912F910F900BBE5E
:100AC0000F900FBE0F901F9018951F920F920FB6A8
:100AD0000F9211240BB60F922F933F934F935F9376
:100AE0006F937F938F939F93AF93BF93EF93FF93F6
:100AF000E0910202F09103021995FF91EF91BF91ED
:100B0000AF919F918F917F916F915F914F913F91A5
:100B10002F910F900BBE0F900FBE0F901F90189546
:100B20001F920F920FB60F9211240BB60F922F93B4
:100B30003F934F935F936F937F938F939F93AF9365
:100B4000BF93EF93FF93E0910002F091010219959A
:100B5000FF91EF91BF91AF919F918F917F916F9195
:100B60005F914F913F912F910F900BBE0F900FBE51
:100B70000F901F9018951F920F920FB60F9211248D
:100B80000BB60F922F933F934F935F936F937F9387
:100B90008F939F93AF93BF93EF93FF93E0910A02DC
:100BA000F0910B021995FF91EF91BF91AF919F9139
:100BB0008F917F916F915F914F913F912F910F9006
:100BC0000BBE0F900FBE0F901F9018951F920F92A3
:100BD0000FB60F9211240BB60F922F933F934F93A2
:100BE0005F936F937F938F939F93AF93BF93EF9395
:100BF000FF93E0910802F09109021995FF91EF919E
:100C0000BF91AF919F918F917F916F915F914F9124
:100C10003F912F910F900BBE0F900FBE0F901F9022
:100C200018951F920F920FB60F9211240BB60F92C8
:100C30002F933F934F935F936F937F938F939F93E4
:100C4000AF93BF93EF93FF93E0910602F0910702F9
:100C50001995FF91EF91BF91AF919F918F917F91E6
:100C60006F915F914F913F912F910F900BBE0F901D
:100C70000FBE0F901F9018951F920F920FB60F92F4
:100C800011240BB60F922F933F934F935F936F9363
:100C90007F938F939F93AF93BF93EF93FF93E091D5
:100CA0000402F09105021995FF91EF91BF91AF9168
:100CB0009F918F917F916F915F914F913F912F9174
:100CC0000F900BBE0F900FBE0F901F9018951F92A4
:100CD0000F920FB60F9211240BB60F922F933F93E2
:100CE0004F935F936F937F938F939F93AF93BF9334
:100CF000EF93FF9383EC92E00E94CD02FF91EF917E
:100D0000BF91AF919F918F917F916F915F914F9123
:100D10003F912F910F900BBE0F900FBE0F901F9021
:100D200018951F920F920FB60F9211240BB60F92C7
:100D30002F938F939F93EF93FF93E091D302F091C2
:100D4000D4028081E091D902F091DA0282FD1DC0C7
:100D500090818091DC028F5F8F732091DD0282177A
:100D600041F0E091DC02F0E0ED53FD4F958F809370
:100D7000DC02FF91EF919F918F912F910F900BBE0D
:100D80000F900FBE0F901F9018958081F2CF78942E
:100D900084B5826084BD84B5816084BD85B5826080
:100DA00085BD85B5816085BD80916E008160809331
:100DB0006E0010928100809181008260809381009A
:100DC00080918100816080938100809180008160AA
:100DD000809380008091B10084608093B100809105
:100DE000B00081608093B000809191008260809318
:100DF000910080919100816080939100809190009A
:100E00008160809390008091A10082608093A10016
:100E10008091A10081608093A1008091A0008160F9
:100E20008093A000809121018260809321018091B4
:100E30002101816080932101809120018160809354
:100E4000200180917A00846080937A0080917A00FA
:100E5000826080937A0080917A00816080937A002A
:100E600080917A00806880937A001092C100E091AE
:100E7000D302F091D40282E08083E091CF02F0911E
:100E8000D0021082E091D102F091D2028FEC8083E7
:100E90001092DB02E091D702F091D80286E08083C5
:100EA000E091D502F091D602808180618083E0914B
:100EB000D502F091D602808188608083E091D502CE
:100EC000F091D602808180688083E091D502F09114
:100ED000D60280818F7D808362E084E10E940202DD
:100EE00062E085E10E94020262E082E10E94020269
:100EF00062E083E10E9402028AE194E090930B0297
:100F000080930A02809169008F73806480936900E6
:100F1000EB9A8BEE93E09093090280930802809104
:100F200069008F7C806180936900EA9A8CEB93E082
:100F3000909307028093060280916900837F84600A
:100F400080936900E99A8DE893E09093050280937D
:100F50000402809169008C7F816080936900E89A27
:100F600080E090E0A0E2B2E480939A0290939B022A
:100F7000A0939C02B0939D02809396029093970257
:100F8000A0939802B093990280E090E0A0E7B3E4C8
:100F90008093920290939302A0939402B09395024F
:100FA00080E090E0A0E8BFE380938E0290938F02F0
:100FB000A0939002B093910286E090E09093A502F6
:100FC0008093A40285E090E09093A3028093A20214
:100FD00087E090E09093A1028093A00288E090E0E7
:100FE00090939F0280939E0286E00E94490485E0D0
:100FF0000E94490487E00E94490488E00E94490455
:101000001092AB021092AA021092A6021092A702AE
:101010001092A8021092A9021092B1021092B0028E
:101020001092AC021092AD021092AE021092AF027A
:1010300082E292E00E947404C090B602D090B7029F
:10104000E090B802F090B9024AE0C701B601F7FE9D
:101050000DC06DE283EC92E00E94EF0266277727D5
:10106000CB016C197D098E099F094AE00E94810419
:1010700084E292E00E94740486E292E00E9474048A
:10108000C090B202D090B302E090B402F090B502EA
:101090004AE0C701B601F7FE0DC06DE283EC92E0B5
:1010A0000E94EF0266277727CB016C197D098E0914
:1010B0009F094AE00E9481048AE292E00E9474043F
:1010C0000E9433024B015C018AE0C82ED12CE12C36
:1010D000F12C0E943302681979098A099B09683E3C
:1010E000734081059105A8F321E0C21AD108E108F7
:1010F000F10888EE880E83E0981EA11CB11CC11473
:10110000D104E104F10429F70E945C0391CFE3ECE0
:10111000F2E01382128288EE93E0A0E0B0E08483D4
:101120009583A683B78384E192E09183808385ECE5
:1011300090E09587848784EC90E09787868780ECA1
:1011400090E0918B808B81EC90E0938B828B82EC92
:1011500090E0958B848B86EC90E0978B868B118E3C
:10116000128E138E148E0895A1E21A2EAA1BBB1B99
:10117000FD010DC0AA1FBB1FEE1FFF1FA217B30763
:10118000E407F50720F0A21BB30BE40BF50B661F79
:10119000771F881F991F1A9469F76095709580953D
:1011A00090959B01AC01BD01CF010895EE0FFF1F8B
:1011B000881F8BBF0790F691E02D1994F894FFCF0C
:1011C000580258025802580258025802580258024F
:1011D00000000000EF02590286023C03B7029502AC
:0E11E000A902783D2000793D20000D0A000094
:00000001FF
