:100000000C94B6010C946A160C943F160C941416BA
:100010000C94E9150C94BE150C9493150C9468156A
:100020000C943D150C94E7010C94E7010C94E70146
:100030000C94E7010C94E7010C94E7010C94E701A0
:100040000C94E7010C94E7010C94E7010C94E70190
:100050000C94F5160C94E7010C94E7010C94F3143E
:100060000C94E7010C94BF160C9495160C94E701C0
:100070000C94E7010C94E7010C94E7010C94E70160
:100080000C94E7010C94E7010C94E7010C94E70150
:100090000C94E7010C94E7010C94E7010C94E70140
:1000A0000C94E7010C94E7010C94E7010C94E70130
:1000B0000C94E7010C94E7010C94E7010C94E70120
:1000C0000C94E7010C94E7010C94E7010C94E70110
:1000D0000C94E7010C94E7010C94E7010C94E70100
:1000E0000C94E70105A84CCDB2D44EB93836A9021C
:1000F0000C50B9918688083CA6AAAA2ABE00000026
:10010000803F0C94E6020C9451060C94E2020C948D
:100110000C020C945D040C94A1020C9488090C94BC
:1001200024020C94B1020C9487030C947B080C9469
:100130000B070C94F0020C9454090C945A070C947D
:10014000DE020C9434020C94690E0C9457070C9444
:1001500004020C944E060C9435080C9456030C942F
:100160002C020C942F080C94C6020C94D60A0C9402
:1001700029030C9462040C9411070C944D130C94F5
:1001800057060C9408070C9460060C9463060C94B4
:1001900045060C9465030C9470140C941C020C948A
:1001A000D5050C94B9020C94060B0C944A170C94C8
:1001B00054070C94B5020C9448060C94D4020C9489
:1001C000D8020C9432080C94B50F0C945A060C9477
:1001D000FB120C9454060C940D060C94D0020C9453
:1001E0003C020C9407060C94CA020C9414020C9462
:1001F00079030C944B060C944A140C94CE090C947D
:10020000A3050C943F050C94B2090C949A0A0C9423
:100210005D060C94BD020C94BF030C9471050C9404
:10022000B30E0C94220B0C9428030C94C0020C9473
:100230000A060C940E070C9414070C94EC020C9410
:100240000C040C948F130C949C02000020002300DB
:10025000260029002C002F003200000100000301BD
:100260000601090100000A0B02090C0D0E08070324
:100270000401000000000000000000000000000079
:10028000000000000000000000000000000000006E
:10029000121110000000000000000000000000002B
:1002A0000000000000000000000000002200250007
:1002B00028002B002E00310034000201000005014F
:1002C00008010B0100002100240027002A002D0056
:1002D0003000330001010000040107010A01050597
:1002E0000505070508080808020202020A0A0808AC
:1002F00004040404010101010101010103030303DA
:1003000003030303040707070C0C0C0C0C0C0C0C68
:100310000202020206060606060606060B0B0B0B79
:100320000B0B0B0B0102102020080810204010209E
:1003300040800201020108040201010204081020A9
:1003400040808040201008040201800402018040A7
:100350002010080402010804020101020408102010
:10036000408001020408102040804A1711241FBE5B
:10037000CFEFD1E2DEBFCDBF00E00CBF15E0A0E0C3
:10038000B2E0E2EAF0E400E00BBF02C007900D9299
:10039000A432B107D9F72FE0A4E2B5E001C01D9265
:1003A000AC38B207E1F711E0C6EBD1E000E006C0DF
:1003B00021970109802FFE010E94651BC53BD107D3
:1003C00080E00807A9F70E9465180C944F200C9450
:1003D0000000E82FF0E0DF01AA0FBB1FA75EBD4FB2
:1003E00011967C936E93883008F04DC08827E450B6
:1003F000FE4F8F4F0C94651B24022C0204020C024A
:1004000014021C0234023C02809169008C7F8160DE
:1004100080936900E89A089580916900837F8460E1
:1004200080936900E99A0895809169008F7C8061CA
:1004300080936900EA9A0895809169008F738064BF
:1004400080936900EB9A089580916A008C7F8160A7
:1004500080936A00EC9A089580916A00837F84609B
:1004600080936A00ED9A089580916A008F7C806184
:1004700080936A00EE9A089580916A008F73806479
:1004800080936A00EF9A0895CF93DF9390E0FC0188
:10049000EC5DFC4F249182529D4FFC018491882396
:1004A000C1F090E0880F991FFC01EC53FD4FC591FE
:1004B000D491FC01E655FD4FA591B4919FB7F894F6
:1004C0003881822F809583238883EC91E22BEC93F3
:1004D0009FBFDF91CF910895282F30E0F901EC59AB
:1004E000FD4F9491F901EC5DFC4F449122523D4F38
:1004F000F9012491222309F477C0992311F1915035
:100500009231F8F4E92FF0E08827E657FD4F8F4F3E
:100510000C94651BB902BD029C02B102B502A10296
:10052000C002C602CA02D002D402D802DE02E2022F
:10053000A102E602EC02F002809180008F778093A6
:100540008000E22FF0E0EE0FFF1FE65BFD4FA5916C
:10055000B491EC91E42381E090E009F047C080E0A1
:100560000895809180008F7DEACF80918000877F01
:10057000E6CF84B58F7784BDE4CF84B58F7DFBCF84
:100580008091B0008F778093B000DBCF8091B00076
:100590008F7DF9CF809190008F7780939000D1CF9D
:1005A000809190008F7DF9CF80919000877FF5CF6B
:1005B0008091A0008F778093A000C3CF8091A0008E
:1005C0008F7DF9CF8091A000877FF5CF80912001AA
:1005D0008F7780932001B5CF809120018F7DF9CF57
:1005E00080912001877FF5CF80E090E008953FB7AC
:1005F000F8948091C7059091C805A091C905B09164
:10060000CA0526B5A89B05C02F3F19F00196A11D6C
:10061000B11D3FBFBA2FA92F982F8827BC01CD014C
:10062000620F711D811D911D42E0660F771F881FAB
:10063000991F4A95D1F708952FB7F8946091C30593
:100640007091C4058091C5059091C6052FBF08958E
:100650000895AF92BF92CF92DF92EF92FF920F93E5
:100660001F93CF93DF936C017B018B01040F151F48
:10067000EB015E01AE18BF08C017D10759F06991B0
:10068000D601ED91FC910190F081E02DC601199504
:10069000892B79F7C501DF91CF911F910F91FF90C1
:1006A000EF90DF90CF90BF90AF900895FC01538DF5
:1006B000448D252F30E0842F90E0821B930B54173C
:1006C00010F0CF96089501970895FC01918D828DC9
:1006D000981761F0A28DAE0FBF2FB11D5D968C9162
:1006E000928D9F5F9F73928F90E008958FEF9FEFA1
:1006F0000895FC01918D828D981731F0828DE80F5D
:10070000F11D858D90E008958FEF9FEF0895FC0116
:10071000918D228D892F90E0805C9F4F821B9109E3
:100720008F73992708958BEC95E00E94870321E051
:10073000892B09F420E0822F0895FC01A48DA80FD5
:10074000B92FB11DA35ABF4F2C91848D90E0019613
:100750008F739927848FA689B7892C93A089B18933
:100760008C91837080648C93938D848D981306C0D4
:100770000288F389E02D80818F7D80830895EF9238
:10078000FF920F931F93CF93DF93EC0181E0888F4B
:100790009B8D8C8D98131AC0E889F989808185FF1B
:1007A00015C09FB7F894EE89FF896083E889F989BD
:1007B00080818370806480839FBF81E090E0DF91BF
:1007C000CF911F910F91FF90EF900895F62E0B8D12
:1007D00010E00F5F1F4F0F731127E02E8C8D8E11CD
:1007E0000CC00FB607FCFACFE889F989808185FF34
:1007F000F5CFCE010E949D03F1CFEB8DEC0FFD2FC5
:10080000F11DE35AFF4FF0829FB7F8940B8FEA89EE
:10081000FB8980818062CFCFCF93DF93EC01888DFD
:100820008823B9F0AA89BB89E889F9898C9185FD6B
:1008300003C0808186FD0DC00FB607FCF7CF8C91F9
:1008400085FFF2CF808185FFEDCFCE010E949D0311
:10085000E9CFDF91CF91089580E090E0892B29F0D6
:100860000E94930381110E94000080E090E0892B98
:1008700049F080E090E0892B29F00E94000081116E
:100880000E94000080E090E0892B49F080E090E039
:10089000892B29F00E94000081110E94000080E055
:1008A00090E0892B49F080E090E0892B29F00E94AC
:1008B000000081110C94000008958E57974FFC01A1
:1008C000808108958F929F92AF92BF92CF92DF92D4
:1008D000EF92FF920F931F93CF93DF9300D01F925D
:1008E0001F92CDB7DEB7643671054CF0FC01EE57B0
:1008F000F74F2081A12CB12C222309F477C0DA0113
:100900005B018C01BC01655E7B4FED91FC91019018
:10091000F081E02DCA0119957C0168012CEEC21A04
:100920002BEFD20A2FEFD6012C93F801EB5EFB4F91
:100930002EEF208331968083319690833196890FF4
:10094000809580833196A0821696BC9245E050E057
:1009500030E020E0C70107964817590730F461914D
:10096000260F311D4F5F5F4FF7CFB8E0EB0EF11C44
:10097000800F911FFC01EC5EFB4F20952083E1E08E
:10098000EE16E4E0FE06B8F457014601C4018C19E6
:100990009D098E159F0554F5D80112968D919C9155
:1009A000F40161914F01DC01ED91FC910190F08126
:1009B000E02D1995EBCF8FE792E09A83898383E04E
:1009C0008B838FED92E09D838C83D801ED91FC9118
:1009D0000190F081E02DAE014F5F5F4F67E070E066
:1009E000C8011995AA24AA94BB24BA94C5010F90F2
:1009F0000F900F900F900F90DF91CF911F910F915B
:100A0000FF90EF90DF90CF90BF90AF909F908F902E
:100A100008950F931F93CF93DF9300D000D000D0A1
:100A20001F92CDB7DEB78C0183E792E09A8389836A
:100A30001B821C821D821E821F82188619861A86BE
:100A4000D801ED91FC910190F081E02DAE014F5F56
:100A50005F4F6AE070E0C80119950E941C03F8011D
:100A600060877187828793872A960FB6F894DEBFD6
:100A70000FBECDBFDF91CF911F910F91089580914F
:100A800000020E946C02209102020197C9F4822F99
:100A90000E946C020197C9F480919A0590919B0580
:100AA000A0919C05B0919D050197A109B109809382
:100AB0009A0590939B05A0939C05B0939D0508957E
:100AC000822F0E946C02892B39F380919A059091B4
:100AD0009B05A0919C05B0919D050196A11DB11D9E
:100AE000E6CF809102020E946C02209100020197E1
:100AF000C9F4822F0E946C02892BC9F480919A0557
:100B000090919B05A0919C05B0919D050197A1092D
:100B1000B10980939A0590939B05A0939C05B0938F
:100B20009D050895822F0E946C02019739F38091F0
:100B30009A0590919B05A0919C05B0919D05019609
:100B4000A11DB11DE6CF809104020E946C0220918C
:100B500006020197C9F4822F0E946C020197C9F422
:100B60008091900590919105A0919205B091930587
:100B70000196A11DB11D8093900590939105A093BE
:100B80009205B09393050895822F0E946C02892BE1
:100B900039F38091900590919105A0919205B091C3
:100BA00093050197A109B109E6CF809106020E9441
:100BB0006C02209104020197C9F4822F0E946C02FA
:100BC000892BC9F48091900590919105A09192058F
:100BD000B09193050196A11DB11D8093900590934E
:100BE0009105A0939205B09393050895822F0E94DA
:100BF0006C02019739F38091900590919105A09135
:100C00009205B09193050197A109B109E6CF88E15A
:100C100093E0089589E393E00895CF92DF92EF92F5
:100C2000FF920F931F93CF93DF936C01EB01DC01D5
:100C300012968C91888319821A821B82F12C04E00F
:100C400010E086E3E82EF6018281F816A0F481AD6B
:100C500092ADFE9C800D911D1124BE01600F711F8D
:100C6000DC01ED91FC910190F081E02D1995080FC8
:100C7000191FF394E8CFC801DF91CF911F910F9115
:100C8000FF90EF90DF90CF90089586E493E0089571
:100C900087E693E0089586E893E0089587EA93E075
:100CA00008958FEB93E0089580EE93E0089589EF27
:100CB00093E008958AE194E0089580E394E0089534
:100CC00081E594E008958F929F92AF92BF92CF9268
:100CD000DF92EF92FF921F93CF93DF93DC01FB0132
:100CE000408150E070E060E012964D935D936D930B
:100CF0007C9315978181582B12964D935D936D933C
:100D00007C9315978281682B12964D935D936D931A
:100D10007C9315978381782B12964D935D936D93F9
:100D20007C931597448150E070E060E016964D93F7
:100D30005D936D937C9319978581582B16964D93EF
:100D40005D936D937C9319978681682B16964D93CE
:100D50005D936D937C9319978781782B16964D93AD
:100D60005D936D937C931997408550E070E060E04F
:100D70001A964D935D936D937C931D978185582BA7
:100D80001A964D935D936D937C931D978285682B86
:100D90001A964D935D936D937C931D978385782B65
:100DA0001A964D935D936D937C931D97448555855D
:100DB000668577859F01215F3F4FE90180E190E0E3
:100DC0006A017B0110E1C10ED11CE11CF11C4C0138
:100DD000B12CA12C8C149D04AE04BF0420F4198105
:100DE00019930196F4CFE40FF51F17861F963C93D5
:100DF0002E931E97CA014096DF91CF911F91FF90CD
:100E0000EF90DF90CF90BF90AF909F908F9008951C
:100E100081E694E008958FE292E0089582E894E0FC
:100E2000089583EA94E008958F929F92AF92BF92C3
:100E3000CF92DF92EF92FF921F93CF93DF93EC015B
:100E4000FB0180818A8381819281A381B481AB017E
:100E50004C5F5F4FFA0125E030E06C017D0115E049
:100E6000C10ED11CE11CF11C4901B12CA12C8C1428
:100E70009D04AE04BF0428F4118111932F5F3F4FEE
:100E8000F3CF680F791FFB0114825C834B830596B7
:100E9000DF91CF911F91FF90EF90DF90CF90BF90A7
:100EA000AF909F908F90089586EB94E0089587ED22
:100EB00094E008956F927F928F929F92AF92BF922B
:100EC000CF92DF92EF92FF920F931F93CF93DF9316
:100ED000DC01FB01808190E013969C938E93129726
:100EE0002181922B13969C938E93129702811381EA
:100EF00024813581AB014B5F5F4FEA0186E090E0D2
:100F00006801790166E0C60ED11CE11CF11C4C01A0
:100F1000B12CA12C8C149D04AE04BF0420F4698173
:100F200069930196F4CFEF01C00FD11F1D82159672
:100F30005C934E931497EF01C00FD11F4E815F81D8
:100F400068857985065F1F4F3F01600E711E68013D
:100F5000012E000CEE08FF08C40ED51EE61EF71E7B
:100F600043018E1A9F0AB12CA12C8C149D04AE044F
:100F7000BF0440F4E30129913E01CE010297EC0148
:100F80002883EECF400F511F9F01240F351FC90149
:100F90000197EC011882C80101978E0F9F1F1796C9
:100FA0009C938E931697E90188809980AA80BB80D4
:100FB0004C5F5F4F3F01640E751E8A01052E000CC9
:100FC000220B330B080D191D2A1D3B1D6301CE1A80
:100FD000DF0AF12CE12CC016D106E206F30640F43C
:100FE000E30169913E01CE010297EC016883EECFE7
:100FF000CA01880D991D8F01080F191F98012150F2
:101000003109E901188241505109E40FF51F199681
:10101000FC93EE931897F8012181428150E070E033
:1010200060E0BA0155274427522B2081422B2381AF
:10103000722B1A964D935D936D937C931D97049636
:10104000DF91CF911F910F91FF90EF90DF90CF90A4
:10105000BF90AF909F908F907F906F90089580EF9A
:1010600094E0089581E195E00895FC01DB014C9145
:1010700050E070E060E0428353836483758311968F
:101080008C911197582B42835383648375831296F6
:101090008C911297682B42835383648375831396D4
:1010A0008C911397782B42835383648375831496B2
:1010B0004C91149750E070E060E04683578360875E
:1010C000718715968C911597582B468357836087A7
:1010D000718716968C911697682B46835783608785
:1010E000718717968C91782B468357836087718719
:1010F00088E090E00895DC01FB0112968C91129734
:10110000808313968C911397818314968C911497F6
:10111000828315968C911597838316968C911697DA
:10112000848317968C911797858318968C911897BE
:10113000868319968C91878388E090E00895CF92FA
:10114000DF92EF92FF920F931F93FC01DB01C380AC
:101150000C2D10E030E020E045E0369527951795FE
:1011600007954A95D1F70D931D932D933C931397B3
:101170008481C82ED12CF12CE12C53E0CC0CDD1C49
:10118000EE1CFF1C5A95D1F7C02AD12AE22AF32A75
:10119000CD92DD92ED92FC9213978581082F10E09D
:1011A00030E020E06BE0000F111F221F331F6A9513
:1011B000D1F70C291D292E293F290D931D932D931D
:1011C0003C931397468150E070E060E083E1440F68
:1011D000551F661F771F8A95D1F7442755276877D3
:1011E0007727042B152B262B372B0D931D932D932F
:1011F0003C931397478150E070E060E094E0440F27
:10120000551F661F771F9A95D1F7407F5770662745
:101210007727C680D12CF12CE12C84E0F694E7945A
:10122000D794C7948A95D1F74C295D296E297F29D7
:101230004115510561057105A1F040585340610900
:10124000710997E1440F551F661F771F9A95D1F7D3
:10125000402B512B622B732B4D935D936D937C939D
:101260001397478150E070E060E0742F66275527A0
:10127000442744275527662770780D911D912D919D
:101280003C911397402B512B622B732B4D935D9305
:101290006D937C93139788E090E01F910F91FF90DE
:1012A000EF90DF90CF900895EF92FF920F931F93EE
:1012B000CF93DF938C017B01BC016E5F7F4FC70131
:1012C0000E949F08EC01B8016A5F7F4FC7018C0F35
:1012D0009D1F0E949F08C80FD91FB801665F7F4FEE
:1012E000C7018C0F9D1F0E949F08C80FD91FB8010E
:1012F000625F7F4FC7018C0F9D1F0E949F088C0F5C
:101300009D1FDF91CF911F910F91FF90EF90089556
:10131000EF92FF920F931F93CF93DF938C017B018A
:10132000BC016E5F7F4FC7010E949F08EC01B801AE
:101330006A5F7F4FC7018C0F9D1F0E949F08C80FD7
:10134000D91FB801665F7F4FC7018C0F9D1F0E9498
:101350009F088C0F9D1FDF91CF911F910F91FF90E0
:10136000EF900895EF92FF920F931F93CF93DF9327
:101370007C01EB0102960E9488098C01BE01680F76
:10138000791FC70140960E945409800F911FDF9179
:10139000CF911F910F91FF90EF9008958F929F92A0
:1013A000AF92BF92EF92FF920F931F93CF93DF9371
:1013B0007C01EB0102960E946306FE01E80FF91F13
:1013C00000811181228133810496FE01E80FF91F0B
:1013D000AC01092E000C660B770B400F511F621FEA
:1013E000731F4F018C1A9D0AB12CA12C84169506EF
:1013F000A606B70628F4B190DF011297BC92F1CF90
:10140000080F191FBE01600F711FFB013197108279
:1014100001978C0F9D1FF701938B828BC701449618
:101420000E94B209800F911FDF91CF911F910F9100
:10143000FF90EF90BF90AF909F908F9008958F9204
:101440009F92AF92BF92CF92DF92EF92FF92CF9393
:10145000DF93EC014A015B01DB01CA0147E1B5956D
:10146000A795979587954A95D1F79927AA27BB27DE
:101470000097A105B10521F080589C4FAF4FBF4F99
:10148000188219821A82B501A40125E0440F551F64
:10149000661F771F2A95D1F74B83B501A40133E06E
:1014A00075956795579547953A95D1F74C83B50152
:1014B000A401EBE07595679557954795EA95D1F7A7
:1014C0004D83B501A401F3E175956795579547954F
:1014D000FA95D1F74F706C017D0124E0CC0CDD1C36
:1014E000EE1CFF1C2A95D1F74C294E836C017D011F
:1014F00034E0F594E794D794C7943A95D1F720E077
:1015000030E0A901C501B4010E94101C87FD0EC086
:10151000CF8288E090E0DF91CF91FF90EF90DF9055
:10152000CF90BF90AF909F908F9008958C2D806842
:101530008F83EFCFEF92FF920F931F93CF93DF93A1
:101540007C018B01FC014281538164817581C8015A
:101550000E941F0AEC01F701468157816085718561
:10156000C8018C0F9D1F0E941F0AC80FD91FF701C9
:101570004285538564857585C8018C0F9D1F0E9427
:101580001F0AC80FD91FF7014685578560897189E1
:10159000C8018C0F9D1F0E941F0A8C0F9D1FDF9199
:1015A000CF911F910F91FF90EF900895EF92FF92CE
:1015B0000F931F93CF93DF937C018B01FC0142813A
:1015C000538164817581C8010E941F0AEC01F701F3
:1015D0004681578160857185C8018C0F9D1F0E94CF
:1015E0001F0AC80FD91FF701428553856485758589
:1015F000C8018C0F9D1F0E941F0A8C0F9D1FDF9139
:10160000CF911F910F91FF90EF900895EF92FF926D
:101610000F931F93CF93DF937C01EB0102960E94FF
:10162000D60A8C01BE01680F791FC70140960E943F
:101630009A0A800F911FDF91CF911F910F91FF9018
:10164000EF9008958F929F92AF92BF92CF92DF92C8
:10165000EF92FF920F931F93CF93DF937091480502
:101660006091490550914A0540914B0530914C05D8
:1016700020914D0590914E0580914F057093400546
:1016800060934105509342054093430530934405D0
:10169000209345059093460580934705209190053A
:1016A000309191054091920550919305A091940538
:1016B000B09195050E94781B8B019C01330F000BA4
:1016C000102F9801609348057093490580934A054F
:1016D00090934B0500934C0500934D0500934E05E8
:1016E00000934F058091480590914905A0914A05C6
:1016F000B0914B05C0914C05D0914D05E0914E0540
:10170000F0914F050091400510914105209142054F
:10171000309143054091440550914505609146053F
:1017200070914705801B910BA20BB30B80937C0536
:1017300090937D05A0937E05B0937F057091580529
:101740006091590550915A0540915B0530915C05B7
:1017500020915D0590915E0580915F057093500525
:1017600060935105509352054093530530935405AF
:1017700020935505909356058093570520919A051F
:1017800030919B0540919C0550919D05A0919E052F
:10179000B0919F050E94781B8B019C01330F000BB9
:1017A000102F9801609358057093590580935A053E
:1017B00090935B0500935C0500935D0500935E05C7
:1017C00000935F058091580590915905A0915A05A5
:1017D000B0915B05C0915C05D0915D05E0915E051F
:1017E000F0915F050091500510915105209152052F
:1017F000309153054091540550915505609156051F
:1018000070915705801B910BA20BB30B8093700551
:1018100090937105A0937205B0937305C090B005C5
:10182000D090B105E090B205F090B30580917C05B1
:1018300090917D05A0917E05B0917F05880F991F3D
:10184000BC01990F880B990B0E948E1C2BED3FE079
:1018500049E450E40E94821DA70196010E94821D66
:101860006B017C0120919605309197058091980538
:1018700090919905289FB001299F700D389F700D98
:101880001124072E000C880B990B0E948E1C9B01C3
:10189000AC01C701B6010E941A1C609378057093D1
:1018A000790580937A0590937B0560917805709116
:1018B000790580917A0590917B052091880530917A
:1018C000890540918A0550918B050E94A41B609365
:1018D00088057093890580938A0590938B056091A4
:1018E00078057091790580917A0590917B0520911A
:1018F00074053091750540917605509177050E94E9
:10190000A41B60937405709375058093760590937E
:101910007705C090AC05D090AD05E090AE05F09095
:10192000AF058091700590917105A0917205B091FD
:101930007305880F991FBC01990F880B990B0E94A2
:101940008E1C2BED3FE049E450E40E94821DA7016C
:1019500096010E94821D6B017C012091A0053091AF
:10196000A1058091A2059091A305289FB001299F10
:10197000700D389F700D1124072E000C880B990BE9
:101980000E948E1C9B01AC01C701B6010E941A1C6B
:1019900060936C0570936D0580936E0590936F0551
:1019A00060916C0570916D0580916E0590916F0549
:1019B00020918405309185054091860550918705D9
:1019C0000E94A41B6093840570938505809386050F
:1019D0009093870560916C0570916D0580916E05FF
:1019E00090916F05209168053091690540916A05D5
:1019F00050916B050E94A41B609368057093690564
:101A000080936A0590936B056091780570917905D4
:101A100080917A0590917B0520916C0530916D0540
:101A200040916E0550916F050E94A41B20E030E0AC
:101A300040E05FE30E94821D60936405709365053A
:101A400080936605909367056091640570916505C4
:101A50008091660590916705209180053091810500
:101A600040918205509183050E94A41B60938005DC
:101A70007093810580938205909383056091B605EC
:101A80007091B7058091B8059091B9050E94151C19
:101A90002091640530916505409166055091670578
:101AA000C090BE05D090BF05E090C005F090C10584
:101AB0000E94821DA70196010E94A41B6093BE058F
:101AC0007093BF058093C0059093C1056091B605E2
:101AD0007091B7058091B8059091B9050E94EF1DEE
:101AE0002091640530916505409166055091670528
:101AF000C090BA05D090BB05E090BC05F090BD0544
:101B00000E94821DA70196010E94A41B6093BA0542
:101B10007093BB058093BC059093BD0560917805DB
:101B20007091790580917A0590917B0520916C05E3
:101B300030916D0540916E0550916F058090A8051C
:101B40009090A905A090AA05B090AB05C090B605ED
:101B5000D090B705E090B805F090B9050E94A31B9E
:101B6000A50194010E941A1CA70196010E94A41BC2
:101B70006093B6057093B7058093B8059093B90547
:101B8000609178057091790580917A0590917B0537
:101B900020916C0530916D0540916E0550916F0557
:101BA0008090A8059090A905A090AA05B090AB05DB
:101BB000C0906005D0906105E0906205F0906305EB
:101BC0000E94A31BA50194010E941A1CA701960163
:101BD0000E94A41B60936005709361058093620569
:101BE000909363056091B6057091B7058091B80533
:101BF0009091B9052BED3FE049E450E40E947D1D32
:101C00001816BCF46091B6057091B7058091B805BF
:101C10009091B9052BED3FE049EC50E40E94A31BE5
:101C20006093B6057093B7058093B8059093B90596
:101C3000D9CF6091B6057091B7058091B8059091A4
:101C4000B9052BED3FE049E450EC0E94101C87FFE2
:101C500017C06091B6057091B7058091B805909155
:101C6000B9052BED3FE049EC50E40E94A41B6093C2
:101C7000B6057093B7058093B8059093B905D9CF91
:101C80006091B6057091B7058091B8059091B9053E
:101C900020E030E044EB53E40E94821D2BED3FE056
:101CA00049EC50E40E941A1C60938C0570938D05DA
:101CB00080938E0590938F05DF91CF911F910F91A7
:101CC000FF90EF90DF90CF90BF90AF909F908F905C
:101CD0000895AF92BF92CF92DF92EF92FF920F934F
:101CE0001F93CF93DF93EC015B01FB0110818A818D
:101CF000811750F4F6E31F9FB001112489AD9AAD0E
:101D00000E94401E9AAF89AF1A83F12C04E010E0C4
:101D10006E0183E0C80ED11C86E3E82E8A81F81696
:101D2000B0F4B501600F711FC6010E94CE09080F03
:101D3000191FA9ADBAADFE9CA00DB11D1124F6016D
:101D40008E2D01900D928A95E1F7F394E7CFC801AB
:101D5000DF91CF911F910F91FF90EF90DF90CF9087
:101D6000BF90AF9008954F925F926F927F928F9243
:101D70009F92AF92BF92CF92DF92EF92FF920F931A
:101D80001F93CF93DF93EC017B01DB011C918A81D0
:101D9000811750F4B4E01B9FB00111248F81988506
:101DA0000E94401E98878F831A8397012C5F3F4FB4
:101DB00060E0AE014D5F5F4F6901CE18DF08F901A9
:101DC00010818A81681710F57181828190E0B0E0FE
:101DD000A0E0DC0199278827972B812B7381B72BF3
:101DE0008B839C83AD83BE83F4E06F9FC00111247D
:101DF000AF81B885A80FB91F84E0FA0101900D9258
:101E00008A95E1F76F5F2C5F3F4FD6CF89858117A9
:101E100050F434E0139FB00111248E859F850E94F9
:101E2000401E9F878E871987C60104968E0D9F1DC1
:101E3000C12C9E01265F3F4F8C010E191F09DC014A
:101E4000DC904985C41630F51196EC9111971296E5
:101E50004C91129750E070E060E0BA01552744279A
:101E60005E2B4D291396EC917E2B4A875B876C87FE
:101E70007D87B4E0CB9EA0011124AE85BF85A40F61
:101E8000B51F44E0F90101900D924A95E1F7C39422
:101E90000496D2CF88898D1550F46D2D70E0660FB1
:101EA000771F8B899C890E94401E9C8B8B8BC8015D
:101EB0000496D88A20E06E01E1E1CE0ED11C38896B
:101EC000231708F041C0D701A80FB91F4D915D91AC
:101ED0006D917C910496D701A80FB91F4C01092E72
:101EE000000CAA08BB08840E951EA61EB71E2D0165
:101EF0004E185F08712C612C481459046A047B0445
:101F000038F43D918D0102501109F8013083EFCF73
:101F1000480F591FD701A40FB51F11971C920197A5
:101F20008E0D9F1D9A8B898BCA01422F50E0440F62
:101F3000551FAB89BC89A40FB51FF60140815181A3
:101F40004D935C932F5FBBCFDF91CF911F910F918A
:101F5000FF90EF90DF90CF90BF90AF909F908F90C9
:101F60007F906F905F904F9008952F923F924F9285
:101F70005F926F927F928F929F92AF92BF92CF9219
:101F8000DF92EF92FF920F931F93CF93DF93CDB722
:101F9000DEB7A6970FB6F894DEBF0FBECDBF8C019B
:101FA0000E941C034B015C0198012957374F3E8B5F
:101FB0002D8BF90180819181A281B381750164012A
:101FC000C81AD90AEA0AFB0AD701C601893F9A4210
:101FD000A105B10510F035971082180138E8231AD1
:101FE00037EF330AD1018D919C91892B79F0F8015B
:101FF000E557F74F80819181A281B38188159905BA
:10200000AA05BB0518F4F10111821082980120582D
:10201000374F3A8B298BA8014458574F5C8B4B8B19
:10202000C8014496988F8F8BD801AE57B74FBC8F9D
:10203000AB8FF801E057F74FFE8FED8F215F3F4FD9
:1020400038A32F8F42505109588B4F878659974F8D
:102050009A8F898F1996BAA3A9A3A50194012C5E22
:102060003F4F4F4F5F4F2BA33CA34DA35EA3D8011F
:1020700012968D919C91DC01ED91FC910284F38587
:10208000E02D19959C0197FD8DC2E989FA8980811F
:102090009181820F931F91838083D1014D915C9137
:1020A000119747305105E9F4E98DFA8D80819181CE
:1020B000AC014F5F5F4F51834083800F911FDC0164
:1020C00054962C93EF85F8898081918101979183B3
:1020D0008083892B61F688E090E0D1018D939C93F9
:1020E000C6CF4115510509F03FC02F3F310589F496
:1020F00081E090E0F10191838083CBA0DCA0EDA092
:10210000FEA0A9A1BAA1CD92DD92ED92FC92139707
:10211000AECF0E941C03681979098A099B096630B1
:1021200071058105910508F4A2CFF801EE57F74F2C
:1021300010828EEF9FEFA6960FB6F894DEBF0FBE0B
:10214000CDBFDF91CF911F910F91FF90EF90DF9066
:10215000CF90BF90AF909F908F907F906F905F9047
:102160004F903F902F9008954130510581F482E0C7
:1021700090E02E3F310581F11D921C92EB8DFC8D7C
:102180008081811174CFC8010E94090570CF42304F
:10219000510591F4AF85B8892D933C93E98DFA8D63
:1021A0001182108283E090E0D1018D939C93E989A4
:1021B000FA89318320835BCF4330510589F4322F74
:1021C0002227AF85B8898D919C911197280F391FCF
:1021D0002D933C9384E090E0F1019183808347CF7D
:1021E0004430510571F460E071E00E942F1B8F3F75
:1021F000910519F485E090E070CFF1011182108211
:1022000036CF4530510571F4AB89BC892D933C9391
:1022100086E090E0F10191838083A989BA892D93AA
:102220003C9325CF4630510599F4322F2227EB8974
:10223000FC8980819181280F391F3183208387E0B9
:1022400090E08D939C93EF85F8898081918141CFB7
:102250004830510509F00BCF1D921C9260E071E0EF
:102260000E942F1B8F3F910509F001CFAB89BC89DC
:10227000ED91FC91309709F0C6C0C8010E94090594
:1022800087E692E09A8389831C821B8287E193E030
:102290009E838D8398878F839A8789871B861C8668
:1022A0001D861E866801BCEECB1AB7EFDB0A7801EB
:1022B000EAEBEE1AE7EFFE0A412C24E0522E612CE5
:1022C000712CD601ED91FC913097A9F18481958113
:1022D0009C838B83808191819E838D838281938176
:1022E000DC01ED91FC910480F581E02D1995988732
:1022F0008F83D601ED91FC9182819381DC01ED9178
:10230000FC910680F781E02D19959A8789874B8685
:102310005C866D867E86D601ED91FC916085718527
:10232000D801ED91FC910190F081E02DAE014F5F5D
:102330005F4FC8011995B2E0CB0ED11CEC14FD041F
:1023400009F0BFCF412C94E0592E612C712CF7017C
:10235000A081B1811097E1F112968D919C91139714
:102360009C838B8314968D919C9115979E838D836E
:10237000ED91FC9111970480F581E02DCD01199527
:1023800098878F83D7018D919C91DC01ED91FC9111
:102390000680F781E02D19959A8789874B865C86A0
:1023A0006D867E86D801ED91FC91C080D180F701C9
:1023B00080819181DC01ED91FC910280F381E02D1F
:1023C0001995AE014F5F5F4FBC01C801F601199529
:1023D000F2E0EF0EF11C2E143F0409F0B8CFF80123
:1023E000EE57F74F81E08083319680829182A282FE
:1023F000B382AD89BE898D929D92AD92BC921397A6
:102400008FEF9FEF98CEEA30F10509F0A1C083E786
:1024100092E09A8389831B821C821D821E821F8206
:10242000188619861A860E941C03F801C084D1847C
:10243000E284F3849B01AC012C193D094E095F092C
:1024400069017A016F89788DCE0101960E94350865
:10245000C701B60128EE33E040E050E00E94431B84
:1024600069017A019B01AC018B819C81AD81BE81A8
:102470008C0D9D1DAE1DBF1D8B839C83AD83BE83C4
:1024800060E472E48FE090E00E941F1BCF80D8844C
:10249000E984FA84DC01CB018C0D9D1DAE1DBF1DAE
:1024A0008F839887A987BA870E941C03CF80D8841E
:1024B000E984FA8436E3D31A35E6E30A34ECF30A06
:1024C00028EE33E040E050E00E94431B29013A012E
:1024D0009B01AC0160E472E48FE090E00E941F1B5E
:1024E000A7019601261B370B480B590BCA01B901EE
:1024F0002B813C814D815E81215031094109510977
:1025000069017A01C418D508E608F70826013701E1
:1025100020E03AEC4AE95BE30E94431B420E531E63
:10252000641E751ED8011C964D925D926D927C9230
:102530001F97F801608B718B828B938B0E941C0319
:10254000AD89BE896D937D938D939C9313978FCDA9
:10255000E630F10559F46F89788D8D8D9E8D0E943E
:10256000B30E81E0EF8DF8A1808381CDEB30F105D2
:1025700021F4AB8DBC8D1C927ACDE154FC4FEE0F53
:10258000FF1FE00FF11F80819181009709F46FCD4B
:10259000DC01ED91FC910190F081E02D6F89788D47
:1025A000199565CDF801EE57F74F8081882301F129
:1025B0007801BDE7EB1AB7EFFB0AF7018081918143
:1025C000A281B381A5019401281B390B4A0B5B0B37
:1025D000DA01C901853C9940A105B10548F0C8015F
:1025E0000E940905D7018D929D92AD92BC921397DE
:1025F00090E080E0A0CDCF93DF93DC01FB01129649
:102600008C911297808313968C91139781831496E3
:102610008C911497828315968C91159783831696C7
:102620008C911697848317968C91179785831896AB
:102630008C911897868319968C91199787831A968F
:102640008C911A9780871B968C911B9781871C967B
:102650008C911C9782871D968C911D9783871E965F
:102660008D919C911F97EC0109900020E9F721972B
:10267000C81BD90BAE0170E060E0448755876687C0
:1026800077871E966D917C91CF0140960E94211F05
:10269000CE014096DF91CF910895CF92DF92EF92D5
:1026A000FF920F931F93CF93DF937C018B010296D0
:1026B0000E94FB12D7015296ED91FC91EF01099017
:1026C0000020E9F72197CE1BDF0BF801E80FF91F77
:1026D000AE0170E060E040835183628373836C01DC
:1026E000B4E0CB0ED11CF70162897389C8018C0D4F
:1026F0009D1D0E94211FCC0DDD1DB8016C0F7D1F9B
:10270000C70144960E94060B8C0F9D1FDF91CF914D
:102710001F910F91FF90EF90DF90CF900895BF929F
:10272000CF92DF92EF92FF920F931F93CF93DF939D
:102730008C01EB01DC0112968C91888319821A823C
:102740001B82DB01149680E09D012C1B3D0BF801E0
:1027500092818917D8F4F4E08F9F90011124F80139
:1027600047815085FA01E20FF31F508131812281A8
:1027700093815C9311963C93119712962C93129728
:1027800013969C9313978F5F1496DECF81858C935D
:10279000DE01A20FB31F11961C92119712961C9284
:1027A000129713961C92F9013496EC0FFD1F90E0DE
:1027B0009F012C1B3D0BD80119968C9119979817E6
:1027C000D8F4B4E09B9F90011124D8011E964D913E
:1027D0005C91DA01A20FB31F4C9111963C911197B5
:1027E00012962C91129713968C91408331832283F9
:1027F00083839F5F3496DCCF50968C918083FE015B
:10280000E20FF31F11821282C90104961382B12CC8
:10281000F8012089B216A0F52B2D30E0220F331FCE
:102820000388F489E02DE20FF31FA081B181FD013F
:1028300001900020E9F731976F01CA1ADB0AFE0107
:10284000E80FF91FA60170E060E0408351836283C6
:1028500073837C01F4E0EF0EF11CD80153968D9147
:102860009C91280F391FF90160817181CE018E0D75
:102870009F1D0E94211FC6018E0D9F1DB394C8CFBE
:10288000DF91CF911F910F91FF90EF90DF90CF904C
:10289000BF900895CF93DF93DC01FB0112968C91DA
:1028A0001297808313968D919C911497EC01099057
:1028B0000020E9F72197C81BD90BAE0170E060E05A
:1028C000418352836383748313966D917C91CF010E
:1028D00005960E94211FCE010596DF91CF910895A4
:1028E000CF92DF92EF92FF920F931F93CF93DF93DC
:1028F0007C01EB01FC018281888383818983A4812F
:10290000B581FD0101900020E9F731976F01CA1AE6
:10291000DB0AC601B0E0A0E08A839B83AC83BD8361
:10292000F70164817581A601CE0106960E94211FE0
:10293000F701A681B781FD0101900020E9F73197E9
:102940008F010A1B1B0BFE01EC0DFD1DC801B0E041
:10295000A0E086839783A087B187FAE0CF0ED11CD1
:10296000F70166817781A801CE018C0D9D1D0E9423
:10297000211F0C0D1D1DF701A085B185FD010190E2
:102980000020E9F731976F01CA1ADB0AFE01E00F58
:10299000F11FC601B0E0A0E080839183A283B383DE
:1029A0000C5F1F4FF70160857185A601CE01800F76
:1029B000911F0E94211F0C0D1D1DF70142852385CB
:1029C00094858585C00FD11F488329839A838B8383
:1029D000C8010496DF91CF911F910F91FF90EF9066
:1029E000DF90CF9008951F920F920FB60F9211248F
:1029F0002F933F938F939F93AF93BF938091C30582
:102A00009091C405A091C505B091C6053091C2054D
:102A100023E0230F2D3758F50196A11DB11D2093FA
:102A2000C2058093C3059093C405A093C505B093D8
:102A3000C6058091C7059091C805A091C905B091C0
:102A4000CA050196A11DB11D8093C7059093C805C5
:102A5000A093C905B093CA05BF91AF919F918F9183
:102A60003F912F910F900FBE0F901F90189526E861
:102A7000230F0296A11DB11DD2CF1F920F920FB648
:102A80000F9211240BB60F922F933F934F935F93A6
:102A90006F937F938F939F93AF93BF93EF93FF9326
:102AA000E0912702F09128021995FF91EF91BF91D3
:102AB000AF919F918F917F916F915F914F913F91D6
:102AC0002F910F900BBE0F900FBE0F901F90189577
:102AD0001F920F920FB60F9211240BB60F922F93E5
:102AE0003F934F935F936F937F938F939F93AF9396
:102AF000BF93EF93FF93E0912502F0912602199581
:102B0000FF91EF91BF91AF919F918F917F916F91C5
:102B10005F914F913F912F910F900BBE0F900FBE81
:102B20000F901F9018951F920F920FB60F921124BD
:102B30000BB60F922F933F934F935F936F937F93B7
:102B40008F939F93AF93BF93EF93FF93E0911B02FB
:102B5000F0911C021995FF91EF91BF91AF919F9158
:102B60008F917F916F915F914F913F912F910F9036
:102B70000BBE0F900FBE0F901F9018951F920F92D3
:102B80000FB60F9211240BB60F922F933F934F93D2
:102B90005F936F937F938F939F93AF93BF93EF93C5
:102BA000FF93E0911902F0911A021995FF91EF91AC
:102BB000BF91AF919F918F917F916F915F914F9155
:102BC0003F912F910F900BBE0F900FBE0F901F9053
:102BD00018951F920F920FB60F9211240BB60F92F9
:102BE0002F933F934F935F936F937F938F939F9315
:102BF000AF93BF93EF93FF93E0912302F0912402F0
:102C00001995FF91EF91BF91AF919F918F917F9116
:102C10006F915F914F913F912F910F900BBE0F904D
:102C20000FBE0F901F9018951F920F920FB60F9224
:102C300011240BB60F922F933F934F935F936F9393
:102C40007F938F939F93AF93BF93EF93FF93E09105
:102C50002102F09122021995FF91EF91BF91AF915E
:102C60009F918F917F916F915F914F913F912F91A4
:102C70000F900BBE0F900FBE0F901F9018951F92D4
:102C80000F920FB60F9211240BB60F922F933F9312
:102C90004F935F936F937F938F939F93AF93BF9364
:102CA000EF93FF93E0911F02F09120021995FF919D
:102CB000EF91BF91AF919F918F917F916F915F91B4
:102CC0004F913F912F910F900BBE0F900FBE0F9021
:102CD0001F9018951F920F920FB60F9211240BB6EA
:102CE0000F922F933F934F935F936F937F938F93A5
:102CF0009F93AF93BF93EF93FF93E0911D02F091E9
:102D00001E021995FF91EF91BF91AF919F918F9105
:102D10007F916F915F914F913F912F910F900BBEDB
:102D20000F900FBE0F901F9018951F920F920FB625
:102D30000F9211240BB60F922F933F934F935F93F3
:102D40006F937F938F939F93AF93BF93EF93FF9373
:102D50008BEC95E00E949D03FF91EF91BF91AF91A5
:102D60009F918F917F916F915F914F913F912F91A3
:102D70000F900BBE0F900FBE0F901F9018951F92D3
:102D80000F920FB60F9211240BB60F922F938F93C1
:102D90009F93EF93FF93E091DB05F091DC05808139
:102DA000E091E105F091E20582FD1DC090818091E6
:102DB000E4058F5F8F732091E505821741F0E09164
:102DC000E405F0E0E553FA4F958F8093E405FF9119
:102DD000EF919F918F912F910F900BBE0F900FBE8F
:102DE0000F901F9018958081F2CF1F920F920FB60F
:102DF0000F9211240BB60F922F933F934F935F9333
:102E00006F937F938F939F93AF93BF93EF93FF93B2
:102E1000E091B405F091B5051995FF91EF91BF913F
:102E2000AF919F918F917F916F915F914F913F9162
:102E30002F910F900BBE0F900FBE0F901F90189503
:102E4000FC018BE592E0918380838FE492E0938391
:102E5000828314821582168217821086118612864A
:102E6000138614861586168617868BE892E0918B5A
:102E7000808B128A138A148A158A168A178A108EF2
:102E8000118E128E138E148E158E168E178E10A222
:102E900011A20895EF92FF920F931F93CF93DF93A8
:102EA0001092CE051092CD0588EE93E0A0E0B0E040
:102EB0008093CF059093D005A093D105B093D20510
:102EC00087E992E09093CC058093CB0585EC90E068
:102ED0009093D8058093D70584EC90E09093DA0521
:102EE0008093D90580EC90E09093DC058093DB051E
:102EF00081EC90E09093DE058093DD0582EC90E01C
:102F00009093E0058093DF0586EC90E09093E205D6
:102F10008093E1051092E4051092E5051092E60514
:102F20001092E70589ED92E09093E4068093E30622
:102F30008BEC95E09093E6068093E50680E091EEB9
:102F4000A0E0B0E08093E7069093E806A093E9063E
:102F5000B093EA061092650F8DEC92E09093740F97
:102F60008093730F1092750F10927C0F1092830F45
:102F70001092870F1092860FE7EFFEE011921192E8
:102F80008FE0E932F807D1F7E9E2FFE01192119200
:102F90008FE0EB35F807D1F7E7EFF6E011928AE022
:102FA000E73FF807D9F7E7EFFAE011928EE0E73F45
:102FB000F807D9F710927B0F10927A0F1092820FB8
:102FC0001092810F81ECE82E82E0F82EF092AE068E
:102FD000E092AD0605EB12E01093B0060093AF0649
:102FE0001092B1061092B2061092B3061092B40677
:102FF0001092B5061092B6061092B7061092B80657
:103000001092B9061092BA061092BB061092BC0636
:10301000C7E1D3E0D093BE06C093BD06D093C006EF
:10302000C093BF0681EC96E00E94201789EA92E0E7
:10303000909369068093680610926A06F0926C0677
:10304000E0926B0610936E0600936D0610926F0669
:10305000109270061092710610927206109273060A
:1030600010927406109275061092760610927706EA
:10307000109278061092790610927A06D0937C0608
:10308000C0937B06D0937E06C0937D068FE796E0C3
:103090000E9420171092A2061092A1068FE195E0DF
:1030A0009093A4068093A30688E696E09093A606E4
:1030B0008093A5061092AC061092AB06DF91CF91DB
:1030C0001F910F91FF90EF900895789484B58260DE
:1030D00084BD84B5816084BD85B5826085BD85B5BC
:1030E000816085BD80916E00816080936E0010923A
:1030F00081008091810082608093810080918100B5
:103100008160809381008091800081608093800045
:103110008091B10084608093B1008091B0008160A3
:103120008093B000809191008260809391008091A3
:1031300091008160809391008091900081608093E4
:1031400090008091A10082608093A1008091A100F5
:1031500081608093A1008091A00081608093A00095
:103160008091210182608093210180912101816001
:1031700080932101809120018160809320018091C2
:103180007A00846080937A0080917A0082608093D4
:103190007A0080917A00816080937A0080917A0031
:1031A000806880937A001092C10080E092ECA1E0E8
:1031B000B0E08093E7069093E806A093E906B09309
:1031C000EA06E091E506F091E606A089B18982E081
:1031D0008C93A485B5851C92A685B78580E18C93D8
:1031E000108EA489B58986E08C93A289B3898C91CD
:1031F00080618C93A289B3898C9188608C93A28919
:10320000B3898C9180688C930288F389E02D80814A
:103210008F7D808310925C0F10925B0F10925E0F77
:1032200010925D0F1092620F1092610F1092600F5A
:1032300010925F0FE7EFFEE090E080E02191319186
:10324000232B09F0F6C1FC01EE0FFF1FE950F14FEF
:1032500023EA36E03183208383589F4F9093A8065A
:103260008093A70683EE96E09093AA068093A90622
:10327000109288051092890510928A0510928B058C
:10328000109284051092850510928605109287058C
:10329000109280051092810510928205109283058C
:1032A0001092BE051092BF051092C0051092C10584
:1032B0001092BA051092BB051092BC051092BD0584
:1032C00010928C0510928D0510928E0510928F052C
:1032D0001092B6051092B7051092B8051092B90574
:1032E00080E1809381001092800080E197E29093CA
:1032F00087008093860082E18093810082E29BE0D8
:103300009093B5058093B40581E080936F0080E0D1
:1033100090E0A0E2B2E48093B0059093B105A09351
:10332000B205B093B3058093AC059093AD05A0931F
:10333000AE05B093AF0580E090E0A5E7B3E48093DD
:10334000A8059093A905A093AA05B093AB0580E0CA
:1033500090E0AEE3B3E48093A4059093A505A09319
:10336000A605B093A70584E190E0909307028093AF
:10337000060285E190E0909305028093040240E903
:1033800051E0509399054093980524E030E0309344
:1033900097052093960581E090E0909395058093A2
:1033A000940510929005109291051092920510923A
:1033B000930562E170E0709303026093020263E19F
:1033C00070E070930102609300025093A305409354
:1033D000A2053093A1052093A00590939F058093AB
:1033E0009E0510929A0510929B0510929C051092D2
:1033F0009D0584E10E94440285E10E94440282E12D
:103400000E94440283E10E94440261E775E085E086
:103410000E94E9016FE375E084E00E94E90165ED37
:1034200075E083E00E94E90163EA75E082E00E94B2
:10343000E9010DEA16E093E1292E92E0392EC8E069
:10344000D2E0412C2AEC522E2AE9622E2BE3722E76
:103450003092BE062092BD06D093C006C093BF0630
:103460006091BE057091BF058091C0059091C10526
:1034700020E030E040E251E40E941A1C6093C5064F
:103480007093C6068093C7069093C8066091BA05EC
:103490007091BB058091BC059091BD0520E030E0A6
:1034A00040E251E40E941A1C6093C9067093CA0658
:1034B0008093CB069093CC066091B6057091B705CA
:1034C0008091B8059091B90520E030E040E05FE3DD
:1034D0000E94821D6B017C010E94EF1D4B015C016B
:1034E000C701B6010E94151C1092D3061092D40693
:1034F0001092D5061092D6061092D7061092D806D2
:103500001092D9061092DA068092DB069092DC06C1
:10351000A092DD06B092DE066093DF067093E006AF
:103520008093E1069093E2060E941C0328EE33E0AC
:1035300040E050E00E94431B69017A019B01AC010D
:1035400060E472E48FE090E00E941F1B8090F3061D
:103550009090F406A090F506B090F606680D791DDF
:103560008A1D9B1D8090EF069090F006A090F106BA
:10357000B090F206C80CD91CEA1CFB1CA3019201F6
:103580000E94431BC20ED31EE41EF51EC092B50658
:10359000D092B606E092B706F092B8066093B906EC
:1035A0007093BA068093BB069093BC0621E02093EB
:1035B0006A061093A2060093A1068091A906909135
:1035C000AA066091A7067091A806DC01ED91FC9116
:1035D0000190F081E02D48E656E0199583EE96E0E3
:1035E0000E94B50F0E94F7024B015C018AE0C82ED1
:1035F000D12CE12CF12C0E94F702681979098A0973
:103600009B09683E734081059105A8F3B1E0CB1A90
:10361000D108E108F10828EE820E23E0921EA11CD9
:10362000B11CC114D104E104F10429F70E942C0457
:103630000FCF01968931910509F000CE19CEDB013B
:103640008F939F930E946D1BBF91AF91A29F800D9E
:10365000911DA39F900DB29F900D1124089597FB8B
:10366000072E16F4009407D077FD09D00E94801B26
:1036700007FC05D03EF4909581959F4F0895709575
:1036800061957F4F0895A1E21A2EAA1BBB1BFD0175
:103690000DC0AA1FBB1FEE1FFF1FA217B307E40731
:1036A000F50720F0A21BB30BE40BF50B661F771F89
:1036B000881F991F1A9469F7609570958095909569
:1036C0009B01AC01BD01CF010895EE0FFF1F881FC4
:1036D0008BBF0790F691E02D19940E94941BA59F33
:1036E000900DB49F900DA49F800D911D11240895FD
:1036F000B7FF0C946D1B0E946D1B821B930B0895EA
:10370000AA1BBB1B51E107C0AA1FBB1FA617B70707
:1037100010F0A61BB70B881F991F5A95A9F7809523
:103720009095BC01CD010895A29FB001B39FC00147
:10373000A39F700D811D1124911DB29F700D811DDD
:103740001124911D08955058BB27AA270E94BB1B26
:103750000C942F1D0E94F61C38F00E94FD1C20F0D6
:1037600039F49F3F19F426F40C94F31C0EF4E09501
:10377000E7FB0C94ED1CE92F0E94541D58F3BA1777
:10378000620773078407950720F079F4A6F50C9477
:10379000761D0EF4E0950B2EBA2FA02D0B01B9016A
:1037A00090010C01CA01A0011124FF27591B99F0B7
:1037B000593F50F4503E68F11A16F040A22F232FC3
:1037C000342F4427585FF3CF469537952795A79513
:1037D000F0405395C9F77EF41F16BA0B620B730BBA
:1037E000840BBAF09150A1F0FF0FBB1F661F771F2B
:1037F000881FC2F70EC0BA0F621F731F841F48F4E0
:10380000879577956795B795F7959E3F08F0B0CF68
:103810009395880F08F09927EE0F9795879508954F
:103820000E94C91C08F481E008950E94061DE395DA
:103830000C94401D0E942E1C0C942F1D0E94FD1CF8
:1038400058F00E94F61C40F029F45F3F29F00C94D8
:10385000ED1C51110C94771D0C94F31C0E94541D07
:1038600068F39923B1F3552391F3951B550BBB27AF
:10387000AA2762177307840738F09F5F5F4F220FF4
:10388000331F441FAA1FA9F335D00E2E3AF0E0E8EB
:1038900032D091505040E695001CCAF72BD0FE2F35
:1038A00029D0660F771F881FBB1F261737074807C9
:1038B000AB07B0E809F0BB0B802DBF01FF27935881
:1038C0005F4F3AF09E3F510578F00C94ED1C0C943C
:1038D000771D5F3FE4F3983ED4F38695779567951F
:1038E000B795F7959F5FC9F7880F911D96958795B6
:1038F00097F90895E1E0660F771F881FBB1F6217D5
:1039000073078407BA0720F0621B730B840BBA0B92
:10391000EE1F88F7E0950895E89409C097FB3EF400
:1039200090958095709561957F4F8F4F9F4F99230C
:10393000A9F0F92F96E9BB279395F695879577958A
:103940006795B795F111F8CFFAF4BB0F11F460FF4A
:103950001BC06F5F7F4F8F4F9F4F16C0882311F0A2
:1039600096E911C0772321F09EE8872F762F05C0B6
:10397000662371F096E8862F70E060E02AF09A9551
:10398000660F771F881FDAF7880F9695879597F946
:103990000895990F0008550FAA0BE0E8FEEF1616E0
:1039A0001706E807F907C0F012161306E407F50733
:1039B00098F0621B730B840B950B39F40A2661F0A7
:1039C000232B242B252B21F408950A2609F4A1404A
:1039D000A6958FEF811D811D089597F99F6780E857
:1039E00070E060E008959FEF80EC089500240A9451
:1039F0001616170618060906089500240A941216CA
:103A000013061406050608950C94F31C0E945C1D11
:103A1000D8F3E894E0E0BB279F57F0F02AED3FE0B1
:103A200049EC06C0EE0FBB0F661F771F881F28F0FA
:103A3000B23A62077307840728F0B25A620B730B1D
:103A4000840BE3959A9572F7803830F49A95BB0F02
:103A5000661F771F881FD2F790480C94F91D092E16
:103A60000394000C11F4882352F0BB0F40F4BF2BD9
:103A700011F460FF04C06F5F7F4F8F4F9F4F089519
:103A8000EF93E0FF07C0A2EA2AED3FE049EC5FEBCD
:103A90000E94BB1B0E942F1D0F90039401FC9058A5
:103AA000E4EEF0E00C94051E57FD9058440F551FAE
:103AB00059F05F3F71F04795880F97FB991F61F0B0
:103AC0009F3F79F087950895121613061406551F27
:103AD000F2CF4695F1DF08C0161617061806991F93
:103AE000F1CF86957105610508940895E894BB2788
:103AF00066277727CB0197F908950E94C91C08F41F
:103B00008FEF08950E94951D0C942F1D0E94F61CA6
:103B100038F00E94FD1C20F0952311F00C94ED1C50
:103B20000C94F31C11240C94771D0E94541D70F307
:103B3000959FC1F3950F50E0551F629FF001729F52
:103B4000BB27F00DB11D639FAA27F00DB11DAA1F61
:103B5000649F6627B00DA11D661F829F2227B00DAE
:103B6000A11D621F739FB00DA11D621F839FA00D39
:103B7000611D221F749F3327A00D611D231F849F89
:103B8000600D211D822F762F6A2F11249F575040E0
:103B90009AF0F1F088234AF0EE0FFF1FBB1F661F5B
:103BA000771F881F91505040A9F79E3F510580F024
:103BB0000C94ED1C0C94771D5F3FE4F3983ED4F316
:103BC000869577956795B795F795E7959F5FC1F7C8
:103BD000FE2B880F911D9695879597F908959F93D1
:103BE0000E94061D0F9007FCEE5F0C94401D9F3F46
:103BF00031F0915020F4879577956795B795880FA8
:103C0000911D9695879597F908959F938F937F932C
:103C10006F93FF93EF939B01AC010E94821DEF9184
:103C2000FF910E94191E2F913F914F915F910C942B
:103C3000821DDF93CF931F930F93FF92EF92DF923A
:103C40007B018C01689406C0DA2EEF010E94951D5D
:103C5000FE01E894A5912591359145915591A6F3E2
:103C6000EF010E94BB1BFE019701A801DA9469F7DE
:103C7000DF90EF90FF900F911F91CF91DF9108950A
:103C80004F925F926F927F928F929F92AF92BF926C
:103C9000CF92DF92EF92FF920F931F93CF93DF9318
:103CA0008C01009799F4CB01DF91CF911F910F9177
:103CB000FF90EF90DF90CF90BF90AF909F908F904C
:103CC0007F906F905F904F900C942A1FFC01E60F3D
:103CD000F71F9C0122503109E217F30708F4AEC028
:103CE000D901CD91DC911197C617D70720F1C530C6
:103CF000D10578F0CE0104978617970750F0C61BC0
:103D0000D70B2297C193D1936D937C93CF010E94DF
:103D1000C61FC801DF91CF911F910F91FF90EF90C7
:103D2000DF90CF90BF90AF909F908F907F906F90DB
:103D30005F904F9008955B01AC1ABD0A4C018C0E48
:103D40009D1EA0918A0FB0918B0F512C412CF12C0C
:103D5000E12C109731F58091880F9091890F88158B
:103D6000990509F05CC04616570608F058C08091C6
:103D7000290290912A02009741F48DB79EB7409195
:103D80002D0250912E02841B950BE817F90708F0BD
:103D900055C0F093890FE093880FF9017183608318
:103DA000B8CF8D919C91119712966C9012971396A3
:103DB0007C901397A815B90559F56C0142E0C40E23
:103DC000D11CCA14DB0420F1AC014A195B09DA01E9
:103DD0001296159780F06282738251834083D901D5
:103DE0006D937C93E114F10471F0D7011396FC9369
:103DF000EE9312978ECF22968C0F9D1FF90191831F
:103E00008083F301EFCFF0938B0FE0938A0F81CF84
:103E10004816590608F42C017D01D3019ACFCB0135
:103E20000E942A1F7C01009749F0AE01B8010E9450
:103E3000211FC8010E94C61F87016BCF10E000E060
:103E400068CFFB01DC0102C001900D92415050404F
:103E5000D8F708950F931F93CF93DF938230910586
:103E600010F482E090E0E0918A0FF0918B0F30E047
:103E700020E0B0E0A0E0309799F42115310509F475
:103E80004AC0281B390B24303105D8F58A819B8123
:103E90006115710589F1FB0193838283FE0111C0D5
:103EA000408151810281138148175907E0F048177A
:103EB000590799F4109761F012960C931297139684
:103EC0001C933296CF01DF91CF911F910F910895EE
:103ED00000938A0F10938B0FF4CF2115310551F009
:103EE0004217530738F0A901DB019A01BD01DF0138
:103EF000F801C1CFEF01F9CF90938B0F80938A0F18
:103F0000CDCFFE01E20FF31F81939193225031092F
:103F100039832883D7CF2091880F3091890F232BA5
:103F200041F420912B0230912C023093890F209381
:103F3000880F2091290230912A022115310541F480
:103F40002DB73EB740912D0250912E02241B350B08
:103F5000E091880FF091890FE217F307A0F42E1B70
:103F60003F0B2817390778F0AC014E5F5F4F2417DD
:103F7000350748F04E0F5F1F5093890F4093880F0D
:103F8000819391939FCFF0E0E0E09CCFCF93DF93BC
:103F90000097E9F0FC01329713821282A0918A0FF8
:103FA000B0918B0FED0130E020E01097A1F420815B
:103FB0003181820F931F2091880F3091890F28172C
:103FC000390709F061C0F093890FE093880FDF9102
:103FD000CF910895EA01CE17DF07E8F54A815B81AA
:103FE0009E0141155105B1F7E901FB83EA8349912F
:103FF0005991C40FD51FEC17FD0761F480819181A1
:104000000296840F951FE9019983888382819381A9
:104010009B838A83F0E0E0E012968D919C91139748
:104020000097B9F52D913C911197CD010296820F21
:10403000931F2091880F3091890F2817390739F67F
:10404000309751F510928B0F10928A0FB093890F11
:10405000A093880FBCCFD383C28340815181840F4A
:10406000951FC817D90761F44E5F5F4F888199810A
:10407000480F591F518340838A819B819383828398
:104080002115310509F0B0CFF0938B0FE0938A0F23
:104090009ECFFD01DC01C0CF13821282D7CFF894EE
:0240A000FFCF50
:1040A20013001200150014002F626173655F6C69C2
:1040B2006E6B002F6F646F6D00280328032803289E
:1040C20003280328032803280300008C0F800072B2
:1040D2006F7373657269616C5F6D7367732F52657D
:1040E2007175657374506172616D0000000000D6D5
:1040F2000A88095A06570600000000060BB2094E4C
:10410200064B060000000070145A075707540700B8
:104112000000007B08350832082F08000000004A22
:1041220014140711070E07000000009A0A540954DC
:1041320006510600000000BF03290356030C048742
:104142000365037903000000000D06690E0A0607E5
:104152000600000000FB12630660065D0600000018
:10416200004D13CE0948064506000000008F13B328
:104172000E0B070807000000006204B50F5D044D36
:104182006573736167652066726F6D206465766919
:1041920063652064726F707065643A206D65737335
:1041A200616765206C6172676572207468616E2058
:1041B2006275666665722E00393438313065646422
:1041C200613538336135303464666461333832398D
:1041D20065373064376565630074662F74664D65B4
:1041E20073736167650062353736346133336266F3
:1041F200656233353838666562633236383238354F
:104202003235373962300067656F6D657472795F78
:104212006D7367732F5472616E73666F726D537430
:10422200616D70656400616339656666343461622C
:1042320066373134323134313132623035643534BB
:104242006133636639620067656F6D657472795FA9
:104252006D7367732F5472616E73666F726D006156
:10426200373739383739666164663031363037333B
:10427200346639303662386331396337303034006E
:1042820067656F6D657472795F6D7367732F5175B2
:10429200617465726E696F6E0034613834326236F1
:1042A20035663431333038346463326231306662B9
:1042B2003438346561376631370067656F6D657410
:1042C20072795F6D7367732F566563746F72330013
:1042D20032313736646563616563626365373861BD
:1042E20062633362393665663034396661626564A9
:1042F200007374645F6D7367732F486561646572E0
:104302000039663065393862646136353938313999
:1043120038366464663533616661376134306534DA
:1043220039003131616264373331633235393333C5
:104332003236316364363138336264313264363254
:10434200393500726F7373657269616C5F6D736783
:10435200732F4C6F6700306164353166383866639D
:10436200343438393266386331303638343037379E
:1043720036343630303500726F7373657269616C32
:104382005F6D7367732F546F706963496E666F0058
:1043920063643731363663373463353532633331EC
:1043A200316662636332666535613762633238391A
:1043B200007374645F6D7367732F54696D65002FAA
:0443C200746600001D
:00000001FF
