:100000000C945E010C9443070C9418070C94ED06B5
:100010000C94C2060C9497060C946C060C94410642
:100020000C9416060C948F010C948F010C948F0184
:100030000C948F010C948F010C948F010C948F0100
:100040000C948F010C948F010C948F010C948F01F0
:100050000C948F010C948F010C948F010C94CC059F
:100060000C948F010C9498070C946E070C948F01DC
:100070000C948F010C948F010C948F010C948F01C0
:100080000C948F010C948F010C948F010C948F01B0
:100090000C948F010C948F010C948F010C948F01A0
:1000A0000C948F010C948F010C948F010C948F0190
:1000B0000C948F010C948F010C948F010C948F0180
:1000C0000C948F010C948F010C948F010C948F0170
:1000D0000C948F010C948F010C948F010C948F0160
:1000E0000C948F0105A84CCDB2D44EB93836A90274
:1000F0000C50B9918688083CA6AAAA2ABE00000026
:10010000803F0C9441020C9445020C943C040C94E6
:1001100038030C94F2020C94A2020C94DC010C94AF
:10012000DE020C94A1020C943D020C94CF020C94BC
:10013000B4010C94E4010C9418020C9425020C9464
:100140001F020C944F020C940A020C9437020C9478
:1001500085030C942F020C9414020C9429020C9425
:10016000D4010C9410020C94CC010C941C020C943D
:100170004B020C94BC010C9433020C944A020C9474
:10018000F8030C94AC010C94C4010C94D6030C94A9
:100190001A040C9400030C94350D00002000230079
:1001A000260029002C002F0032000001000003016E
:1001B0000601090100000A0B02090C0D0E080703D5
:1001C000040100000000000000000000000000002A
:1001D000000000000000000000000000000000001F
:1001E00012111000000000000000000000000000DC
:1001F00000000000000000000000000022002500B8
:1002000028002B002E0031003400020100000501FF
:1002100008010B0100002100240027002A002D0006
:100220003000330001010000040107010A01050547
:100230000505070508080808020202020A0A08085C
:10024000040404040101010101010101030303038A
:1002500003030303040707070C0C0C0C0C0C0C0C19
:100260000202020206060606060606060B0B0B0B2A
:100270000B0B0B0B0102102020080810204010204F
:10028000408002010201080402010102040810205A
:100290004080804020100804020180040201804058
:1002A00020100804020108040201010204081020C1
:1002B00040800102040810204080350D11241FBE2B
:1002C000CFEFD1E2DEBFCDBF00E00CBF12E0A0E077
:1002D000B2E0EEEBF0E200E00BBF02C007900D923F
:1002E000A034B107D9F723E0A0E4B2E001C01D9229
:1002F000A638B207E1F711E0CEE5D1E000E006C094
:1003000021970109802FFE010E94840DCD35D10770
:1003100080E00807A9F70E94CE070C945D100C94AA
:100320000000E82FF0E0DF01AA0FBB1FA050BE4F76
:1003300011967C936E93883008F04DC08827EC5559
:10034000FE4F8F4F0C94840DCC01D401AC01B4014D
:10035000BC01C401DC01E401809169008C7F8160F3
:1003600080936900E89A089580916900837F846092
:1003700080936900E99A0895809169008F7C80617B
:1003800080936900EA9A0895809169008F73806470
:1003900080936900EB9A089580916A008C7F816058
:1003A00080936A00EC9A089580916A00837F84604C
:1003B00080936A00ED9A089580916A008F7C806135
:1003C00080936A00EE9A089580916A008F7380642A
:1003D00080936A00EF9A08958150823108F05AC0E4
:1003E000E82FF0E08827E850FE4F8F4F0C94840DE3
:1003F00018021C020A02100214024A021F022502FD
:1004000029022F02330237023D0241024A0245020D
:100410004B024F02809180008F7780938000089577
:10042000809180008F7DF9CF80918000877FF5CF0C
:1004300084B58F7784BD089584B58F7DFBCF80917F
:10044000B0008F778093B00008958091B0008F7DC9
:10045000F9CF809190008F778093900008958091DC
:1004600090008F7DF9CF80919000877FF5CF8091AC
:10047000A0008F778093A00008958091A0008F7DC9
:10048000F9CF8091A000877FF5CF809120018F77F1
:10049000809320010895809120018F7DF9CF809174
:1004A0002001877FF5CFCF93DF93282F30E0F9012C
:1004B000EC54FE4F8491F901EC58FD4FD491F901B1
:1004C000E25DFD4FC491CC23A1F081110E94EC01AB
:1004D000EC2FF0E0EE0FFF1FE656FE4FA591B49112
:1004E000EC91ED2381E090E009F480E0DF91CF9181
:1004F000089580E090E0FACF3FB7F8948091E5024C
:100500009091E602A091E702B091E80226B5A89B7F
:1005100005C02F3F19F00196A11DB11D3FBFBA2F95
:10052000A92F982F8827BC01CD01620F711D811D55
:10053000911D42E0660F771F881F991F4A95D1F7DA
:1005400008950895AF92BF92CF92DF92EF92FF92FB
:100550000F931F93CF93DF936C017B018B01040FEB
:10056000151FEB015E01AE18BF08C017D10759F087
:100570006991D601ED91FC910190F081E02DC601C9
:100580001995892B79F7C501DF91CF911F910F91B3
:10059000FF90EF90DF90CF90BF90AF900895FC0157
:1005A000538D448D252F30E0842F90E0821B930BD8
:1005B000541710F0CF96089501970895FC01918D7E
:1005C000828D981761F0A28DAE0FBF2FB11D5D9681
:1005D0008C91928D9F5F9F73928F90E008958FEF23
:1005E0009FEF0895FC01918D828D981731F0828DD7
:1005F000E80FF11D858D90E008958FEF9FEF08952E
:10060000FC01918D228D892F90E0805C9F4F821B91
:1006100091098F739927089589EE92E00E94000353
:1006200021E0892B09F420E0822F0895FC01A48D9C
:10063000A80FB92FB11DA35ABF4F2C91848D90E004
:1006400001968F739927848FA689B7892C93A089E7
:10065000B1898C91837080648C93938D848D981371
:1006600006C00288F389E02D80818F7D8083089504
:10067000EF92FF920F931F93CF93DF93EC0181E0F2
:10068000888F9B8D8C8D98131AC0E889F989808199
:1006900085FF15C09FB7F894EE89FF896083E889CC
:1006A000F98980818370806480839FBF81E090E0BE
:1006B000DF91CF911F910F91FF90EF900895F62E4B
:1006C0000B8D10E00F5F1F4F0F731127E02E8C8DE5
:1006D0008E110CC00FB607FCFACFE889F98980812A
:1006E00085FFF5CFCE010E941603F1CFEB8DEC0F05
:1006F000FD2FF11DE35AFF4FF0829FB7F8940B8F47
:10070000EA89FB8980818062CFCFCF93DF93EC01B0
:10071000888D8823B9F0AA89BB89E889F9898C91E9
:1007200085FD03C0808186FD0DC00FB607FCF7CFA5
:100730008C9185FFF2CF808185FFEDCFCE010E94A5
:100740001603E9CFDF91CF91089580E090E0892BE7
:1007500029F00E940C0381110E94000080E090E0CB
:10076000892B49F080E090E0892B29F00E9400005D
:1007700081110E94000080E090E0892B49F080E028
:1007800090E0892B29F00E94000081110E94000056
:1007900080E090E0892B49F080E090E0892B29F0FF
:1007A0000E94000081110C94000008958091600265
:1007B0000E94530220916202019779F4822F0E94D5
:1007C0005302019779F480916C0290916D02019728
:1007D00090936D0280936C020895822F0E945302C1
:1007E000892B89F380916C0290916D020196F0CF74
:1007F000809162020E94530220916002019779F475
:10080000822F0E945302892B79F480916C0290917F
:100810006D02019790936D0280936C020895822F70
:100820000E945302019789F380916C0290916D02AE
:100830000196F0CF809164020E94530220916602DB
:10084000019779F4822F0E945302019779F48091E5
:1008500078029091790201969093790280937802C0
:100860000895822F0E945302892B89F38091780288
:10087000909179020197F0CF809166020E94530215
:1008800020916402019779F4822F0E945302892BF0
:1008900079F480917802909179020196909379028F
:1008A000809378020895822F0E945302019789F362
:1008B00080917802909179020197F0CFCF93DF93E6
:1008C00090E0BC016C587D4FFB01A4919C01225D1E
:1008D0003D4FF9014491442399F050E0440F551FD6
:1008E000FA01EC5EFD4FC591D491FA01E650FE4F3E
:1008F000459154914FB7F8945881A52BA8834FBFC9
:100900008C549E4FFC018491FB01D491F901C49158
:10091000CC2391F081110E94EC01EC2FF0E0EE0F5E
:10092000FF1FE650FE4FA591B4918FB7F8949C91AC
:10093000D095D923DC938FBFDF91CF910895FC012F
:1009400001900020E9F73197AF01481B590BBC011A
:1009500089EE92E00C94A2028F929F92AF92BF9286
:100960000F931F93CF93DF93CDB7DEB7A1970FB649
:10097000F894DEBF0FBECDBF19A2423008F44AE0A2
:100980008E010F5D1F4F842E912CB12CA12CA5013F
:1009900094010E94620DE62FB901CA01EA30F4F415
:1009A000E05DD801EE938D01232B242B252B79F7C5
:1009B00090E080E0109719F0CD010E949F04A1966D
:1009C0000FB6F894DEBF0FBECDBFDF91CF911F9160
:1009D0000F91BF90AF909F908F900895E95CE1CF09
:1009E0004F925F926F927F928F929F92AF92BF923F
:1009F000CF92DF92EF92FF920F931F93CF936B01F1
:100A00007C01742EAC019B010E940F10882399F089
:100A100082E292E0CF911F910F91FF90EF90DF90D3
:100A2000CF90BF90AF909F908F907F906F905F908E
:100A30004F900C949F0446015701E894B7F82FEFAC
:100A40003FEF4FE75FE7C501B4010E940F1081112E
:100A50000DC02FEF3FEF4FE75FE7C501B4010E94E4
:100A6000F90D18161CF486E292E0D4CF2FEF3FEF79
:100A70004FE75FE4C701B6010E94950F18161CF4FA
:100A80008AE292E0C7CF2FEF3FEF4FE75FECC7015D
:100A9000B6010E94F90D87FDF3CF20E030E0A901F7
:100AA000C701B6010E94F90D10E000E087FF0AC0FF
:100AB0006DE289EE92E00E9438038C01F7FAF0941F
:100AC000F7F8F094C0E060E070E080E09FE37C160F
:100AD00041F020E030E040E251E40E94030ECF5F9D
:100AE000F6CFA70196010E948D0D2B013C010E94BB
:100AF000750E4B015C014AE00E94AC047C01E00EE3
:100B0000F11ECC23C1F1C501B4010E94A40E9B01CA
:100B1000AC01C301B2010E948C0D4B015C016EE27D
:100B200089EE92E00E943803E80EF91EC15018F1D8
:100B300020E030E040E251E4C501B4010E949A0F88
:100B40002B013C010E94750E4B01B12CA12C4AE0F7
:100B5000C501B4010E94AC04E80EF91EC501B40140
:100B60000E94A40E9B01AC01C301B2010E948C0D36
:100B70004B015C01DBCFC701CF911F910F91FF901B
:100B8000EF90DF90CF90BF90AF909F908F907F902D
:100B90006F905F904F9008951F920F920FB60F9233
:100BA00011242F933F938F939F93AF93BF93809183
:100BB000E1029091E202A091E302B091E40230914F
:100BC000E00223E0230F2D3758F50196A11DB11D3A
:100BD0002093E0028093E1029093E202A093E3026B
:100BE000B093E4028091E5029091E602A091E702C1
:100BF000B091E8020196A11DB11D8093E50290938A
:100C0000E602A093E702B093E802BF91AF919F91F3
:100C10008F913F912F910F900FBE0F901F901895BD
:100C200026E8230F0296A11DB11DD2CF1F920F926D
:100C30000FB60F9211240BB60F922F933F934F9341
:100C40005F936F937F938F939F93AF93BF93EF9334
:100C5000FF93E0910E02F0910F021995FF91EF9131
:100C6000BF91AF919F918F917F916F915F914F91C4
:100C70003F912F910F900BBE0F900FBE0F901F90C2
:100C800018951F920F920FB60F9211240BB60F9268
:100C90002F933F934F935F936F937F938F939F9384
:100CA000AF93BF93EF93FF93E0910C02F0910D028D
:100CB0001995FF91EF91BF91AF919F918F917F9186
:100CC0006F915F914F913F912F910F900BBE0F90BD
:100CD0000FBE0F901F9018951F920F920FB60F9294
:100CE00011240BB60F922F933F934F935F936F9303
:100CF0007F938F939F93AF93BF93EF93FF93E09175
:100D00000202F09103021995FF91EF91BF91AF910B
:100D10009F918F917F916F915F914F913F912F9113
:100D20000F900BBE0F900FBE0F901F9018951F9243
:100D30000F920FB60F9211240BB60F922F933F9381
:100D40004F935F936F937F938F939F93AF93BF93D3
:100D5000EF93FF93E0910002F09101021995FF914A
:100D6000EF91BF91AF919F918F917F916F915F9123
:100D70004F913F912F910F900BBE0F900FBE0F9090
:100D80001F9018951F920F920FB60F9211240BB659
:100D90000F922F933F934F935F936F937F938F9314
:100DA0009F93AF93BF93EF93FF93E0910A02F0916B
:100DB0000B021995FF91EF91BF91AF919F918F9188
:100DC0007F916F915F914F913F912F910F900BBE4B
:100DD0000F900FBE0F901F9018951F920F920FB695
:100DE0000F9211240BB60F922F933F934F935F9363
:100DF0006F937F938F939F93AF93BF93EF93FF93E3
:100E0000E0910802F09109021995FF91EF91BF91CD
:100E1000AF919F918F917F916F915F914F913F9192
:100E20002F910F900BBE0F900FBE0F901F90189533
:100E30001F920F920FB60F9211240BB60F922F93A1
:100E40003F934F935F936F937F938F939F93AF9352
:100E5000BF93EF93FF93E0910602F091070219957B
:100E6000FF91EF91BF91AF919F918F917F916F9182
:100E70005F914F913F912F910F900BBE0F900FBE3E
:100E80000F901F9018951F920F920FB60F9211247A
:100E90000BB60F922F933F934F935F936F937F9374
:100EA0008F939F93AF93BF93EF93FF93E0910402CF
:100EB000F09105021995FF91EF91BF91AF919F912C
:100EC0008F917F916F915F914F913F912F910F90F3
:100ED0000BBE0F900FBE0F901F9018951F920F9290
:100EE0000FB60F9211240BB60F922F933F934F938F
:100EF0005F936F937F938F939F93AF93BF93EF9382
:100F0000FF9389EE92E00E941603FF91EF91BF914B
:100F1000AF919F918F917F916F915F914F913F9191
:100F20002F910F900BBE0F900FBE0F901F90189532
:100F30001F920F920FB60F9211240BB60F922F93A0
:100F40008F939F93EF93FF93E091F902F091FA0250
:100F50008081E091FF02F091000382FD1DC090812D
:100F6000809102038F5F8F7320910303821741F0FA
:100F7000E0910203F0E0E751FD4F958F809302036B
:100F8000FF91EF919F918F912F910F900BBE0F903A
:100F90000FBE0F901F9018958081F2CF789484B582
:100FA000826084BD84B5816084BD85B5826085BD65
:100FB00085B5816085BD80916E00816080936E00F3
:100FC00010928100809181008260809381008091E5
:100FD0008100816080938100809180008160809396
:100FE00080008091B10084608093B1008091B00056
:100FF00081608093B0008091910082608093910025
:101000008091910081608093910080919000816037
:10101000809390008091A10082608093A1008091D4
:10102000A10081608093A1008091A00081608093E5
:10103000A000809121018260809321018091210193
:101040008160809321018091200181608093200143
:1010500080917A00846080937A0080917A00826027
:1010600080937A0080917A00816080937A008091E9
:101070007A00806880937A001092C100E091F902B2
:10108000F091FA0282E08083E091F502F091F6029D
:101090001082E091F702F091F8028FEC80831092B9
:1010A0000103E091FD02F091FE0286E08083E09171
:1010B000FB02F091FC02808180618083E091FB0261
:1010C000F091FC02808188608083E091FB02F091C6
:1010D000FC02808180688083E091FB02F091FC0239
:1010E00080818F7D808380E090E0A4E3B2E48093F0
:1010F000CC029093CD02A093CE02B093CF02809306
:10110000B4029093B502A093B602B093B70280E008
:1011100090E8A1EBB3E480938C0290938D02A093AE
:101120008E02B0938F0280E090E0A9E3B3E4809355
:10113000540290935502A0935602B093570287E051
:1011400090E090935F0280935E0288E090E090933D
:101150005D0280935C0289E090E090935B02809353
:101160005A028AE090E0909359028093580287E0F7
:101170000E945E0488E00E945E0489E00E945E0492
:101180008AE00E945E0482E190E090936302809383
:10119000620283E190E0909361028093600268EFC5
:1011A00073E085E00E94910166ED73E084E00E94A7
:1011B0009101E12C44E0F42EF092D102E092D002B1
:1011C00004E010E01093D3020093D202C1E0D0E01B
:1011D000D0936F02C0936E0210926D0210926C0257
:1011E000109268021092690210926A0210926B02C9
:1011F00084E190E0909367028093660285E190E03D
:1012000090936502809364026CE374E083E00E9433
:1012100091016AE174E082E00E949101F092B902CA
:10122000E092B8021093BB020093BA02D0937B0203
:10123000C0937A021092790210927802109274028E
:1012400010927502109276021092770280917202CB
:1012500090917302909371028093700240916C029E
:1012600050916D0220916E0230916F02429FC00139
:10127000439F900D529F900D112490937302809381
:1012800072028091720290917302209170023091EB
:101290007102821B930BB0E0A0E08093C802909390
:1012A000C902A093CA02B093CB028091C802909168
:1012B000C902A091CA02B091CB0281339547A10522
:1012C000B105A4F08091C8029091C902A091CA0210
:1012D000B091CB028F5F9F4FA109B1098093C802E3
:1012E0009093C902A093CA02B093CB028091C80226
:1012F0009091C902A091CA02B091CB02803D9A4858
:10130000AF4FBF4F9CF48091C8029091C902A09149
:10131000CA02B091CB020197AF4FBF4F8093C80272
:101320009093C902A093CA02B093CB028091680245
:1013300090916902A0916A02B0916B024091C8023B
:101340005091C9026091CA027091CB02840F951F1F
:10135000A61FB71F8093680290936902A0936A0248
:10136000B0936B0280917E0290917F0290937D02F8
:1013700080937C02409178025091790220917A0208
:1013800030917B02429FC001439F900D529F900D70
:10139000112490937F0280937E0280917E0290912F
:1013A0007F0220917C0230917D02821B930BB0E082
:1013B000A0E08093B0029093B102A093B202B093E8
:1013C000B3028091B0029091B102A091B202B091AB
:1013D000B30281339547A105B105A4F08091B00215
:1013E0009091B102A091B202B091B3028F5F9F4F72
:1013F000A109B1098093B0029093B102A093B20207
:10140000B093B3028091B0029091B102A091B20268
:10141000B091B302803D9A48AF4FBF4F9CF480918A
:10142000B0029091B102A091B202B091B3020197C3
:10143000AF4FBF4F8093B0029093B102A093B2021E
:10144000B093B3028091740290917502A0917602DC
:10145000B09177024091B0025091B1026091B20216
:101460007091B302840F951FA61FB71F809374025B
:1014700090937502A0937602B0937702C090CC024D
:10148000D090CD02E090CE02F090CF028091C802C1
:101490009091C902A091CA02B091CB02880F991F06
:1014A000BC01990F880B990B0E94A60E2BED3FE013
:1014B00049E450E40E949A0FA70196010E949A0FF6
:1014C0006B017C012091D2023091D3028091D00235
:1014D0009091D102289FB001299F700D389F700D07
:1014E0001124072E000C880B990B0E94A60E9B015D
:1014F000AC01C701B6010E94030E6093C402709351
:10150000C5028093C6029093C7026091C402709195
:10151000C5028091C6029091C7022091C00230910D
:10152000C1024091C2025091C3020E948D0D60938E
:10153000C0027093C1028093C2029093C302609173
:10154000C4027091C5028091C6029091C702209199
:10155000BC023091BD024091BE025091BF020E9478
:101560008D0D6093BC027093BD028093BE02909378
:10157000BF02C090B402D090B502E090B602F090E5
:10158000B7028091B0029091B102A091B202B091E5
:10159000B302880F991FBC01990F880B990B0E9409
:1015A000A60E2BED3FE049E450E40E949A0FA701FC
:1015B00096010E949A0F6B017C012091BA02309132
:1015C000BB028091B8029091B902289FB001299F77
:1015D000700D389F700D1124072E000C880B990B8D
:1015E0000E94A60E9B01AC01C701B6010E94030E2A
:1015F0006093AC027093AD028093AE029093AF0201
:101600006091AC027091AD028091AE029091AF02F8
:101610002091A8023091A9024091AA025091AB02F8
:101620000E948D0D6093A8027093A9028093AA0274
:101630009093AB026091AC027091AD028091AE02CA
:101640009091AF022091A4023091A5024091A60290
:101650005091A7020E948D0D6093A4027093A50281
:101660008093A6029093A7026091C4027091C50274
:101670008091C6029091C7022091AC023091AD02D8
:101680004091AE025091AF020E948D0D20E030E0FB
:1016900040E05FE30E949A0F6093A0027093A10262
:1016A0008093A2029093A3026091A0027091A10284
:1016B0008091A2029091A30220919C0230919D0200
:1016C00040919E0250919F020E948D0D60939C025A
:1016D00070939D0280939E0290939F026091980266
:1016E0007091990280919A0290919B020E94FE0D46
:1016F0002091A0023091A1024091A2025091A30238
:10170000C0909402D0909502E0909602F0909702DB
:101710000E949A0FA70196010E948D0D609394027A
:10172000709395028093960290939702609198022D
:101730007091990280919A0290919B020E940710E9
:101740002091A0023091A1024091A2025091A302E7
:10175000C0909002D0909102E0909202F09093029B
:101760000E949A0FA70196010E948D0D609390022E
:101770007093910280939202909393026091C402BD
:101780007091C5028091C6029091C7022091AC026F
:101790003091AD024091AE025091AF0280908C0228
:1017A00090908D02A0908E02B0908F02C09098020F
:1017B000D0909902E0909A02F0909B020E948C0DCA
:1017C000A50194010E94030EA70196010E948D0DB0
:1017D000609398027093990280939A0290939B026F
:1017E0006091C4027091C5028091C6029091C702B7
:1017F0002091AC023091AD024091AE025091AF0207
:1018000080908C0290908D02A0908E02B0908F02FA
:10181000C0908802D0908902E0908A02F0908B02FA
:101820000E948C0DA50194010E94030EA701960150
:101830000E948D0D609388027093890280938A02C2
:1018400090938B02609198027091990280919A0214
:1018500090919B022BED3FE049E450E40E94950FEC
:101860001816BCF4609198027091990280919A02C6
:1018700090919B022BED3FE049EC50E40E948C0DCF
:10188000609398027093990280939A0290939B02BE
:10189000D9CF609198027091990280919A029091AB
:1018A0009B022BED3FE049E450EC0E94F90D87FFCD
:1018B00017C0609198027091990280919A0290915C
:1018C0009B022BED3FE049EC50E40E948D0D6093AC
:1018D00098027093990280939A0290939B02D9CFB9
:1018E000609198027091990280919A0290919B0266
:1018F00020E030E044EB53E40E949A0F2BED3FE0F0
:1019000049EC50E40E94030E6093D4027093D50218
:101910008093D6029093D7028091840290918502A1
:10192000A0918602B09187020196A11DB11D8093FE
:10193000840290938502A0938602B09387028091DF
:10194000800290918102A0918202B091830201965F
:10195000A11DB11D8093800290938102A093820209
:10196000B0938302609198027091990280919A02DB
:1019700090919B020E94FE0D20919402309195025D
:1019800040919602509197020E948D0D6093DC0267
:101990007093DD028093DE029093DF0260919802E3
:1019A0007091990280919A0290919B020E94071077
:1019B00020919002309191024091920250919302B5
:1019C0000E948D0D6093D8027093D9028093DA0241
:1019D0009093DB028EE292E00E949F046091DC0211
:1019E0007091DD028091DE029091DF0242E00E9460
:1019F000F0048BE392E00E949F0482E392E00E9455
:101A00009F046091D8027091D9028091DA0290917E
:101A1000DB0242E00E94F0048BE392E00E949F040C
:101A200086E392E00E949F046091D4027091D502F7
:101A30008091D6029091D70242E00E94F0048DE39B
:101A400092E00E949F040E947C026B017C010E9434
:101A50007C026C197D098E099F09683E73408105DF
:101A60009105A8F30E94A503F1CBE9EEF2E0138201
:101A7000128288EE93E0A0E0B0E084839583A68391
:101A8000B78384E192E09183808385EC90E0958731
:101A9000848784EC90E09787868780EC90E0918B38
:101AA000808B81EC90E0938B828B82EC90E0958B25
:101AB000848B86EC90E0978B868B118E128E138E22
:101AC000148E0895A1E21A2EAA1BBB1BFD010DC0A6
:101AD000AA1FBB1FEE1FFF1FA217B307E407F507DE
:101AE00020F0A21BB30BE40BF50B661F771F881FBA
:101AF000991F1A9469F760957095809590959B0150
:101B0000AC01BD01CF010895EE0FFF1F881F8BBFF1
:101B10000790F691E02D19945058BB27AA270E94F0
:101B2000A40D0C94470F0E940E0F38F00E94150F61
:101B300020F039F49F3F19F426F40C940B0F0EF4A7
:101B4000E095E7FB0C94050FE92F0E946C0F58F30A
:101B5000BA17620773078407950720F079F4A6F592
:101B60000C948E0F0EF4E0950B2EBA2FA02D0B01C6
:101B7000B90190010C01CA01A0011124FF27591BD2
:101B800099F0593F50F4503E68F11A16F040A22FD8
:101B9000232F342F4427585FF3CF46953795279549
:101BA000A795F0405395C9F77EF41F16BA0B620B48
:101BB000730B840BBAF09150A1F0FF0FBB1F661F8F
:101BC000771F881FC2F70EC0BA0F621F731F841FD2
:101BD00048F4879577956795B795F7959E3F08F0F8
:101BE000B0CF9395880F08F09927EE0F97958795BA
:101BF00008950E94E10E08F481E008950E941E0FEE
:101C0000E3950C94580F0E94170E0C94470F0E94F6
:101C1000150F58F00E940E0F40F029F45F3F29F095
:101C20000C94050F51110C948F0F0C940B0F0E9404
:101C30006C0F68F39923B1F3552391F3951B550B62
:101C4000BB27AA2762177307840738F09F5F5F4F8F
:101C5000220F331F441FAA1FA9F335D00E2E3AF0CE
:101C6000E0E832D091505040E695001CCAF72BD0E6
:101C7000FE2F29D0660F771F881FBB1F2617370737
:101C80004807AB07B0E809F0BB0B802DBF01FF2769
:101C900093585F4F3AF09E3F510578F00C94050F32
:101CA0000C948F0F5F3FE4F3983ED4F386957795BD
:101CB0006795B795F7959F5FC9F7880F911D969522
:101CC000879597F90895E1E0660F771F881FBB1F7E
:101CD000621773078407BA0720F0621B730B840B2B
:101CE000BA0BEE1F88F7E09508950E94740F88F0F4
:101CF0009F5798F0B92F9927B751B0F0E1F0660FD0
:101D0000771F881F991F1AF0BA95C9F714C0B13010
:101D100091F00E948E0FB1E008950C948E0F672F02
:101D2000782F8827B85F39F0B93FCCF3869577953F
:101D30006795B395D9F73EF4909580957095619528
:101D40007F4F8F4F9F4F0895E89409C097FB3EF453
:101D500090958095709561957F4F8F4F9F4F9923F8
:101D6000A9F0F92F96E9BB279395F6958795779576
:101D70006795B795F111F8CFFAF4BB0F11F460FF36
:101D80001BC06F5F7F4F8F4F9F4F16C0882311F08E
:101D900096E911C0772321F09EE8872F762F05C0A2
:101DA000662371F096E8862F70E060E02AF09A953D
:101DB000660F771F881FDAF7880F9695879597F932
:101DC0000895990F0008550FAA0BE0E8FEEF1616CC
:101DD0001706E807F907C0F012161306E407F5071F
:101DE00098F0621B730B840B950B39F40A2661F093
:101DF000232B242B252B21F408950A2609F4A14036
:101E0000A6958FEF811D811D089597F99F6780E842
:101E100070E060E008959FEF80EC089500240A943C
:101E20001616170618060906089500240A941216B5
:101E300013061406050608950C940B0F0E94740FE8
:101E4000D8F3E894E0E0BB279F57F0F02AED3FE09D
:101E500049EC06C0EE0FBB0F661F771F881F28F0E6
:101E6000B23A62077307840728F0B25A620B730B09
:101E7000840BE3959A9572F7803830F49A95BB0FEE
:101E8000661F771F881FD2F790480C941610092EF2
:101E90000394000C11F4882352F0BB0F40F4BF2BC5
:101EA00011F460FF04C06F5F7F4F8F4F9F4F089505
:101EB000EF93E0FF07C0A2EA2AED3FE049EC5FEBB9
:101EC0000E94A40D0E94470F0F90039401FC9058AC
:101ED000E4EEF0E00C94221057FD9058440F551F8B
:101EE00059F05F3F71F04795880F97FB991F61F09C
:101EF0009F3F79F087950895121613061406551F13
:101F0000F2CF4695F1DF08C0161617061806991F7E
:101F1000F1CF86957105610508940895E894BB2773
:101F200066277727CB0197F908950E94E10E08F400
:101F30008FEF08950E94AD0F0C94470F0E940E0F73
:101F400038F00E94150F20F0952311F00C94050F26
:101F50000C940B0F11240C948F0F0E946C0F70F3D4
:101F6000959FC1F3950F50E0551F629FF001729F3E
:101F7000BB27F00DB11D639FAA27F00DB11DAA1F4D
:101F8000649F6627B00DA11D661F829F2227B00D9A
:101F9000A11D621F739FB00DA11D621F839FA00D25
:101FA000611D221F749F3327A00D611D231F849F75
:101FB000600D211D822F762F6A2F11249F575040CC
:101FC0009AF0F1F088234AF0EE0FFF1FBB1F661F47
:101FD000771F881F91505040A9F79E3F510580F010
:101FE0000C94050F0C948F0F5F3FE4F3983ED4F3ED
:101FF000869577956795B795F795E7959F5FC1F7B4
:10200000FE2B880F911D9695879597F908959F93BC
:102010000E941E0F0F9007FCEE5F0C94580F0E9459
:10202000E10E880B990B08959F3F31F0915020F4F9
:10203000879577956795B795880F911D96958795A4
:1020400097F908959F938F937F936F93FF93EF93E7
:102050009B01AC010E949A0FEF91FF910E943610F4
:102060002F913F914F915F910C949A0FDF93CF93F3
:102070001F930F93FF92EF92DF927B018C01689484
:1020800006C0DA2EEF010E94AD0FFE01E894A59183
:102090002591359145915591A6F3EF010E94A40D2C
:1020A000FE019701A801DA9469F7DF90EF90FF90A5
:0E20B0000F911F91CF91DF910895F894FFCF0B
:1020BE00A102A102A102A102A102A102A102A102FA
:1020CE00000000003803A202CF0285030003DE02E7
:1020DE00F2026E616E00696E66006F766600783D84
:1020EE002000793D2000746574613D20000D0A00CA
:00000001FF
